{
	"LoggingBalance.sol": {
		"LoggingDemo": {
			"abi": [
				{
					"anonymous": false,
					"inputs": [
						{
							"indexed": true,
							"internalType": "address",
							"name": "user",
							"type": "address"
						},
						{
							"indexed": false,
							"internalType": "uint256",
							"name": "saldoBaru",
							"type": "uint256"
						}
					],
					"name": "SaldoBerubah",
					"type": "event"
				},
				{
					"inputs": [
						{
							"internalType": "uint256",
							"name": "_amount",
							"type": "uint256"
						}
					],
					"name": "deposit",
					"outputs": [],
					"stateMutability": "nonpayable",
					"type": "function"
				},
				{
					"inputs": [],
					"name": "saldo",
					"outputs": [
						{
							"internalType": "uint256",
							"name": "",
							"type": "uint256"
						}
					],
					"stateMutability": "view",
					"type": "function"
				}
			],
			"devdoc": {
				"kind": "dev",
				"methods": {},
				"version": 1
			},
			"evm": {
				"assembly": "    /* \"LoggingBalance.sol\":67:401  contract LoggingDemo {... */\n  mstore(0x40, 0x80)\n  callvalue\n  dup1\n  iszero\n  tag_1\n  jumpi\n  0x00\n  dup1\n  revert\ntag_1:\n  pop\n  dataSize(sub_0)\n  dup1\n  dataOffset(sub_0)\n  0x00\n  codecopy\n  0x00\n  return\nstop\n\nsub_0: assembly {\n        /* \"LoggingBalance.sol\":67:401  contract LoggingDemo {... */\n      mstore(0x40, 0x80)\n      callvalue\n      dup1\n      iszero\n      tag_1\n      jumpi\n      0x00\n      dup1\n      revert\n    tag_1:\n      pop\n      jumpi(tag_2, lt(calldatasize, 0x04))\n      shr(0xe0, calldataload(0x00))\n      dup1\n      0xa41de865\n      eq\n      tag_3\n      jumpi\n      dup1\n      0xb6b55f25\n      eq\n      tag_4\n      jumpi\n    tag_2:\n      0x00\n      dup1\n      revert\n        /* \"LoggingBalance.sol\":95:115  uint256 public saldo */\n    tag_3:\n      tag_5\n      tag_6\n      jump\t// in\n    tag_5:\n      mload(0x40)\n      tag_7\n      swap2\n      swap1\n      tag_8\n      jump\t// in\n    tag_7:\n      mload(0x40)\n      dup1\n      swap2\n      sub\n      swap1\n      return\n        /* \"LoggingBalance.sol\":192:398  function deposit(uint256 _amount) public {... */\n    tag_4:\n      tag_9\n      0x04\n      dup1\n      calldatasize\n      sub\n      dup2\n      add\n      swap1\n      tag_10\n      swap2\n      swap1\n      tag_11\n      jump\t// in\n    tag_10:\n      tag_12\n      jump\t// in\n    tag_9:\n      stop\n        /* \"LoggingBalance.sol\":95:115  uint256 public saldo */\n    tag_6:\n      sload(0x00)\n      dup2\n      jump\t// out\n        /* \"LoggingBalance.sol\":192:398  function deposit(uint256 _amount) public {... */\n    tag_12:\n        /* \"LoggingBalance.sol\":262:263  0 */\n      0x00\n        /* \"LoggingBalance.sol\":252:259  _amount */\n      dup2\n        /* \"LoggingBalance.sol\":252:263  _amount > 0 */\n      gt\n        /* \"LoggingBalance.sol\":244:294  require(_amount > 0, \"Jumlah harus lebih dari 0!\") */\n      tag_14\n      jumpi\n      mload(0x40)\n      0x08c379a000000000000000000000000000000000000000000000000000000000\n      dup2\n      mstore\n      0x04\n      add\n      tag_15\n      swap1\n      tag_16\n      jump\t// in\n    tag_15:\n      mload(0x40)\n      dup1\n      swap2\n      sub\n      swap1\n      revert\n    tag_14:\n        /* \"LoggingBalance.sol\":314:321  _amount */\n      dup1\n        /* \"LoggingBalance.sol\":305:310  saldo */\n      0x00\n      dup1\n        /* \"LoggingBalance.sol\":305:321  saldo += _amount */\n      dup3\n      dup3\n      sload\n      tag_17\n      swap2\n      swap1\n      tag_18\n      jump\t// in\n    tag_17:\n      swap3\n      pop\n      pop\n      dup2\n      swap1\n      sstore\n      pop\n        /* \"LoggingBalance.sol\":350:360  msg.sender */\n      caller\n        /* \"LoggingBalance.sol\":337:368  SaldoBerubah(msg.sender, saldo) */\n      0xffffffffffffffffffffffffffffffffffffffff\n      and\n      0x19d8d9948de7b7f9be4117782e6b30e24cd022c1a0f590719908fb23676dde3a\n        /* \"LoggingBalance.sol\":362:367  saldo */\n      sload(0x00)\n        /* \"LoggingBalance.sol\":337:368  SaldoBerubah(msg.sender, saldo) */\n      mload(0x40)\n      tag_19\n      swap2\n      swap1\n      tag_8\n      jump\t// in\n    tag_19:\n      mload(0x40)\n      dup1\n      swap2\n      sub\n      swap1\n      log2\n        /* \"LoggingBalance.sol\":192:398  function deposit(uint256 _amount) public {... */\n      pop\n      jump\t// out\n        /* \"#utility.yul\":7:84   */\n    tag_20:\n        /* \"#utility.yul\":44:51   */\n      0x00\n        /* \"#utility.yul\":73:78   */\n      dup2\n        /* \"#utility.yul\":62:78   */\n      swap1\n      pop\n        /* \"#utility.yul\":7:84   */\n      swap2\n      swap1\n      pop\n      jump\t// out\n        /* \"#utility.yul\":90:208   */\n    tag_21:\n        /* \"#utility.yul\":177:201   */\n      tag_34\n        /* \"#utility.yul\":195:200   */\n      dup2\n        /* \"#utility.yul\":177:201   */\n      tag_20\n      jump\t// in\n    tag_34:\n        /* \"#utility.yul\":172:175   */\n      dup3\n        /* \"#utility.yul\":165:202   */\n      mstore\n        /* \"#utility.yul\":90:208   */\n      pop\n      pop\n      jump\t// out\n        /* \"#utility.yul\":214:436   */\n    tag_8:\n        /* \"#utility.yul\":307:311   */\n      0x00\n        /* \"#utility.yul\":345:347   */\n      0x20\n        /* \"#utility.yul\":334:343   */\n      dup3\n        /* \"#utility.yul\":330:348   */\n      add\n        /* \"#utility.yul\":322:348   */\n      swap1\n      pop\n        /* \"#utility.yul\":358:429   */\n      tag_36\n        /* \"#utility.yul\":426:427   */\n      0x00\n        /* \"#utility.yul\":415:424   */\n      dup4\n        /* \"#utility.yul\":411:428   */\n      add\n        /* \"#utility.yul\":402:408   */\n      dup5\n        /* \"#utility.yul\":358:429   */\n      tag_21\n      jump\t// in\n    tag_36:\n        /* \"#utility.yul\":214:436   */\n      swap3\n      swap2\n      pop\n      pop\n      jump\t// out\n        /* \"#utility.yul\":523:640   */\n    tag_23:\n        /* \"#utility.yul\":632:633   */\n      0x00\n        /* \"#utility.yul\":629:630   */\n      dup1\n        /* \"#utility.yul\":622:634   */\n      revert\n        /* \"#utility.yul\":769:891   */\n    tag_25:\n        /* \"#utility.yul\":842:866   */\n      tag_41\n        /* \"#utility.yul\":860:865   */\n      dup2\n        /* \"#utility.yul\":842:866   */\n      tag_20\n      jump\t// in\n    tag_41:\n        /* \"#utility.yul\":835:840   */\n      dup2\n        /* \"#utility.yul\":832:867   */\n      eq\n        /* \"#utility.yul\":822:885   */\n      tag_42\n      jumpi\n        /* \"#utility.yul\":881:882   */\n      0x00\n        /* \"#utility.yul\":878:879   */\n      dup1\n        /* \"#utility.yul\":871:883   */\n      revert\n        /* \"#utility.yul\":822:885   */\n    tag_42:\n        /* \"#utility.yul\":769:891   */\n      pop\n      jump\t// out\n        /* \"#utility.yul\":897:1036   */\n    tag_26:\n        /* \"#utility.yul\":943:948   */\n      0x00\n        /* \"#utility.yul\":981:987   */\n      dup2\n        /* \"#utility.yul\":968:988   */\n      calldataload\n        /* \"#utility.yul\":959:988   */\n      swap1\n      pop\n        /* \"#utility.yul\":997:1030   */\n      tag_44\n        /* \"#utility.yul\":1024:1029   */\n      dup2\n        /* \"#utility.yul\":997:1030   */\n      tag_25\n      jump\t// in\n    tag_44:\n        /* \"#utility.yul\":897:1036   */\n      swap3\n      swap2\n      pop\n      pop\n      jump\t// out\n        /* \"#utility.yul\":1042:1371   */\n    tag_11:\n        /* \"#utility.yul\":1101:1107   */\n      0x00\n        /* \"#utility.yul\":1150:1152   */\n      0x20\n        /* \"#utility.yul\":1138:1147   */\n      dup3\n        /* \"#utility.yul\":1129:1136   */\n      dup5\n        /* \"#utility.yul\":1125:1148   */\n      sub\n        /* \"#utility.yul\":1121:1153   */\n      slt\n        /* \"#utility.yul\":1118:1237   */\n      iszero\n      tag_46\n      jumpi\n        /* \"#utility.yul\":1156:1235   */\n      tag_47\n      tag_23\n      jump\t// in\n    tag_47:\n        /* \"#utility.yul\":1118:1237   */\n    tag_46:\n        /* \"#utility.yul\":1276:1277   */\n      0x00\n        /* \"#utility.yul\":1301:1354   */\n      tag_48\n        /* \"#utility.yul\":1346:1353   */\n      dup5\n        /* \"#utility.yul\":1337:1343   */\n      dup3\n        /* \"#utility.yul\":1326:1335   */\n      dup6\n        /* \"#utility.yul\":1322:1344   */\n      add\n        /* \"#utility.yul\":1301:1354   */\n      tag_26\n      jump\t// in\n    tag_48:\n        /* \"#utility.yul\":1291:1354   */\n      swap2\n      pop\n        /* \"#utility.yul\":1247:1364   */\n      pop\n        /* \"#utility.yul\":1042:1371   */\n      swap3\n      swap2\n      pop\n      pop\n      jump\t// out\n        /* \"#utility.yul\":1377:1546   */\n    tag_27:\n        /* \"#utility.yul\":1461:1472   */\n      0x00\n        /* \"#utility.yul\":1495:1501   */\n      dup3\n        /* \"#utility.yul\":1490:1493   */\n      dup3\n        /* \"#utility.yul\":1483:1502   */\n      mstore\n        /* \"#utility.yul\":1535:1539   */\n      0x20\n        /* \"#utility.yul\":1530:1533   */\n      dup3\n        /* \"#utility.yul\":1526:1540   */\n      add\n        /* \"#utility.yul\":1511:1540   */\n      swap1\n      pop\n        /* \"#utility.yul\":1377:1546   */\n      swap3\n      swap2\n      pop\n      pop\n      jump\t// out\n        /* \"#utility.yul\":1552:1728   */\n    tag_28:\n        /* \"#utility.yul\":1692:1720   */\n      0x4a756d6c6168206861727573206c656269682064617269203021000000000000\n        /* \"#utility.yul\":1688:1689   */\n      0x00\n        /* \"#utility.yul\":1680:1686   */\n      dup3\n        /* \"#utility.yul\":1676:1690   */\n      add\n        /* \"#utility.yul\":1669:1721   */\n      mstore\n        /* \"#utility.yul\":1552:1728   */\n      pop\n      jump\t// out\n        /* \"#utility.yul\":1734:2100   */\n    tag_29:\n        /* \"#utility.yul\":1876:1879   */\n      0x00\n        /* \"#utility.yul\":1897:1964   */\n      tag_52\n        /* \"#utility.yul\":1961:1963   */\n      0x1a\n        /* \"#utility.yul\":1956:1959   */\n      dup4\n        /* \"#utility.yul\":1897:1964   */\n      tag_27\n      jump\t// in\n    tag_52:\n        /* \"#utility.yul\":1890:1964   */\n      swap2\n      pop\n        /* \"#utility.yul\":1973:2066   */\n      tag_53\n        /* \"#utility.yul\":2062:2065   */\n      dup3\n        /* \"#utility.yul\":1973:2066   */\n      tag_28\n      jump\t// in\n    tag_53:\n        /* \"#utility.yul\":2091:2093   */\n      0x20\n        /* \"#utility.yul\":2086:2089   */\n      dup3\n        /* \"#utility.yul\":2082:2094   */\n      add\n        /* \"#utility.yul\":2075:2094   */\n      swap1\n      pop\n        /* \"#utility.yul\":1734:2100   */\n      swap2\n      swap1\n      pop\n      jump\t// out\n        /* \"#utility.yul\":2106:2525   */\n    tag_16:\n        /* \"#utility.yul\":2272:2276   */\n      0x00\n        /* \"#utility.yul\":2310:2312   */\n      0x20\n        /* \"#utility.yul\":2299:2308   */\n      dup3\n        /* \"#utility.yul\":2295:2313   */\n      add\n        /* \"#utility.yul\":2287:2313   */\n      swap1\n      pop\n        /* \"#utility.yul\":2359:2368   */\n      dup2\n        /* \"#utility.yul\":2353:2357   */\n      dup2\n        /* \"#utility.yul\":2349:2369   */\n      sub\n        /* \"#utility.yul\":2345:2346   */\n      0x00\n        /* \"#utility.yul\":2334:2343   */\n      dup4\n        /* \"#utility.yul\":2330:2347   */\n      add\n        /* \"#utility.yul\":2323:2370   */\n      mstore\n        /* \"#utility.yul\":2387:2518   */\n      tag_55\n        /* \"#utility.yul\":2513:2517   */\n      dup2\n        /* \"#utility.yul\":2387:2518   */\n      tag_29\n      jump\t// in\n    tag_55:\n        /* \"#utility.yul\":2379:2518   */\n      swap1\n      pop\n        /* \"#utility.yul\":2106:2525   */\n      swap2\n      swap1\n      pop\n      jump\t// out\n        /* \"#utility.yul\":2531:2711   */\n    tag_30:\n        /* \"#utility.yul\":2579:2656   */\n      0x4e487b7100000000000000000000000000000000000000000000000000000000\n        /* \"#utility.yul\":2576:2577   */\n      0x00\n        /* \"#utility.yul\":2569:2657   */\n      mstore\n        /* \"#utility.yul\":2676:2680   */\n      0x11\n        /* \"#utility.yul\":2673:2674   */\n      0x04\n        /* \"#utility.yul\":2666:2681   */\n      mstore\n        /* \"#utility.yul\":2700:2704   */\n      0x24\n        /* \"#utility.yul\":2697:2698   */\n      0x00\n        /* \"#utility.yul\":2690:2705   */\n      revert\n        /* \"#utility.yul\":2717:2908   */\n    tag_18:\n        /* \"#utility.yul\":2757:2760   */\n      0x00\n        /* \"#utility.yul\":2776:2796   */\n      tag_58\n        /* \"#utility.yul\":2794:2795   */\n      dup3\n        /* \"#utility.yul\":2776:2796   */\n      tag_20\n      jump\t// in\n    tag_58:\n        /* \"#utility.yul\":2771:2796   */\n      swap2\n      pop\n        /* \"#utility.yul\":2810:2830   */\n      tag_59\n        /* \"#utility.yul\":2828:2829   */\n      dup4\n        /* \"#utility.yul\":2810:2830   */\n      tag_20\n      jump\t// in\n    tag_59:\n        /* \"#utility.yul\":2805:2830   */\n      swap3\n      pop\n        /* \"#utility.yul\":2853:2854   */\n      dup3\n        /* \"#utility.yul\":2850:2851   */\n      dup3\n        /* \"#utility.yul\":2846:2855   */\n      add\n        /* \"#utility.yul\":2839:2855   */\n      swap1\n      pop\n        /* \"#utility.yul\":2874:2877   */\n      dup1\n        /* \"#utility.yul\":2871:2872   */\n      dup3\n        /* \"#utility.yul\":2868:2878   */\n      gt\n        /* \"#utility.yul\":2865:2901   */\n      iszero\n      tag_60\n      jumpi\n        /* \"#utility.yul\":2881:2899   */\n      tag_61\n      tag_30\n      jump\t// in\n    tag_61:\n        /* \"#utility.yul\":2865:2901   */\n    tag_60:\n        /* \"#utility.yul\":2717:2908   */\n      swap3\n      swap2\n      pop\n      pop\n      jump\t// out\n\n    auxdata: 0xa26469706673582212208d8b2424779911cf7e0d1aacdb99eed0a0ecc1eff32b018c36985f3ccfb7cd2664736f6c634300081a0033\n}\n",
				"bytecode": {
					"linkReferences": {},
					"object": "6080604052348015600e575f80fd5b506102ba8061001c5f395ff3fe608060405234801561000f575f80fd5b5060043610610034575f3560e01c8063a41de86514610038578063b6b55f2514610056575b5f80fd5b610040610072565b60405161004d919061013a565b60405180910390f35b610070600480360381019061006b9190610181565b610077565b005b5f5481565b5f81116100b9576040517f08c379a00000000000000000000000000000000000000000000000000000000081526004016100b090610206565b60405180910390fd5b805f808282546100c99190610251565b925050819055503373ffffffffffffffffffffffffffffffffffffffff167f19d8d9948de7b7f9be4117782e6b30e24cd022c1a0f590719908fb23676dde3a5f54604051610117919061013a565b60405180910390a250565b5f819050919050565b61013481610122565b82525050565b5f60208201905061014d5f83018461012b565b92915050565b5f80fd5b61016081610122565b811461016a575f80fd5b50565b5f8135905061017b81610157565b92915050565b5f6020828403121561019657610195610153565b5b5f6101a38482850161016d565b91505092915050565b5f82825260208201905092915050565b7f4a756d6c6168206861727573206c6562696820646172692030210000000000005f82015250565b5f6101f0601a836101ac565b91506101fb826101bc565b602082019050919050565b5f6020820190508181035f83015261021d816101e4565b9050919050565b7f4e487b71000000000000000000000000000000000000000000000000000000005f52601160045260245ffd5b5f61025b82610122565b915061026683610122565b925082820190508082111561027e5761027d610224565b5b9291505056fea26469706673582212208d8b2424779911cf7e0d1aacdb99eed0a0ecc1eff32b018c36985f3ccfb7cd2664736f6c634300081a0033",
					"opcodes": "PUSH1 0x80 PUSH1 0x40 MSTORE CALLVALUE DUP1 ISZERO PUSH1 0xE JUMPI PUSH0 DUP1 REVERT JUMPDEST POP PUSH2 0x2BA DUP1 PUSH2 0x1C PUSH0 CODECOPY PUSH0 RETURN INVALID PUSH1 0x80 PUSH1 0x40 MSTORE CALLVALUE DUP1 ISZERO PUSH2 0xF JUMPI PUSH0 DUP1 REVERT JUMPDEST POP PUSH1 0x4 CALLDATASIZE LT PUSH2 0x34 JUMPI PUSH0 CALLDATALOAD PUSH1 0xE0 SHR DUP1 PUSH4 0xA41DE865 EQ PUSH2 0x38 JUMPI DUP1 PUSH4 0xB6B55F25 EQ PUSH2 0x56 JUMPI JUMPDEST PUSH0 DUP1 REVERT JUMPDEST PUSH2 0x40 PUSH2 0x72 JUMP JUMPDEST PUSH1 0x40 MLOAD PUSH2 0x4D SWAP2 SWAP1 PUSH2 0x13A JUMP JUMPDEST PUSH1 0x40 MLOAD DUP1 SWAP2 SUB SWAP1 RETURN JUMPDEST PUSH2 0x70 PUSH1 0x4 DUP1 CALLDATASIZE SUB DUP2 ADD SWAP1 PUSH2 0x6B SWAP2 SWAP1 PUSH2 0x181 JUMP JUMPDEST PUSH2 0x77 JUMP JUMPDEST STOP JUMPDEST PUSH0 SLOAD DUP2 JUMP JUMPDEST PUSH0 DUP2 GT PUSH2 0xB9 JUMPI PUSH1 0x40 MLOAD PUSH32 0x8C379A000000000000000000000000000000000000000000000000000000000 DUP2 MSTORE PUSH1 0x4 ADD PUSH2 0xB0 SWAP1 PUSH2 0x206 JUMP JUMPDEST PUSH1 0x40 MLOAD DUP1 SWAP2 SUB SWAP1 REVERT JUMPDEST DUP1 PUSH0 DUP1 DUP3 DUP3 SLOAD PUSH2 0xC9 SWAP2 SWAP1 PUSH2 0x251 JUMP JUMPDEST SWAP3 POP POP DUP2 SWAP1 SSTORE POP CALLER PUSH20 0xFFFFFFFFFFFFFFFFFFFFFFFFFFFFFFFFFFFFFFFF AND PUSH32 0x19D8D9948DE7B7F9BE4117782E6B30E24CD022C1A0F590719908FB23676DDE3A PUSH0 SLOAD PUSH1 0x40 MLOAD PUSH2 0x117 SWAP2 SWAP1 PUSH2 0x13A JUMP JUMPDEST PUSH1 0x40 MLOAD DUP1 SWAP2 SUB SWAP1 LOG2 POP JUMP JUMPDEST PUSH0 DUP2 SWAP1 POP SWAP2 SWAP1 POP JUMP JUMPDEST PUSH2 0x134 DUP2 PUSH2 0x122 JUMP JUMPDEST DUP3 MSTORE POP POP JUMP JUMPDEST PUSH0 PUSH1 0x20 DUP3 ADD SWAP1 POP PUSH2 0x14D PUSH0 DUP4 ADD DUP5 PUSH2 0x12B JUMP JUMPDEST SWAP3 SWAP2 POP POP JUMP JUMPDEST PUSH0 DUP1 REVERT JUMPDEST PUSH2 0x160 DUP2 PUSH2 0x122 JUMP JUMPDEST DUP2 EQ PUSH2 0x16A JUMPI PUSH0 DUP1 REVERT JUMPDEST POP JUMP JUMPDEST PUSH0 DUP2 CALLDATALOAD SWAP1 POP PUSH2 0x17B DUP2 PUSH2 0x157 JUMP JUMPDEST SWAP3 SWAP2 POP POP JUMP JUMPDEST PUSH0 PUSH1 0x20 DUP3 DUP5 SUB SLT ISZERO PUSH2 0x196 JUMPI PUSH2 0x195 PUSH2 0x153 JUMP JUMPDEST JUMPDEST PUSH0 PUSH2 0x1A3 DUP5 DUP3 DUP6 ADD PUSH2 0x16D JUMP JUMPDEST SWAP2 POP POP SWAP3 SWAP2 POP POP JUMP JUMPDEST PUSH0 DUP3 DUP3 MSTORE PUSH1 0x20 DUP3 ADD SWAP1 POP SWAP3 SWAP2 POP POP JUMP JUMPDEST PUSH32 0x4A756D6C6168206861727573206C656269682064617269203021000000000000 PUSH0 DUP3 ADD MSTORE POP JUMP JUMPDEST PUSH0 PUSH2 0x1F0 PUSH1 0x1A DUP4 PUSH2 0x1AC JUMP JUMPDEST SWAP2 POP PUSH2 0x1FB DUP3 PUSH2 0x1BC JUMP JUMPDEST PUSH1 0x20 DUP3 ADD SWAP1 POP SWAP2 SWAP1 POP JUMP JUMPDEST PUSH0 PUSH1 0x20 DUP3 ADD SWAP1 POP DUP2 DUP2 SUB PUSH0 DUP4 ADD MSTORE PUSH2 0x21D DUP2 PUSH2 0x1E4 JUMP JUMPDEST SWAP1 POP SWAP2 SWAP1 POP JUMP JUMPDEST PUSH32 0x4E487B7100000000000000000000000000000000000000000000000000000000 PUSH0 MSTORE PUSH1 0x11 PUSH1 0x4 MSTORE PUSH1 0x24 PUSH0 REVERT JUMPDEST PUSH0 PUSH2 0x25B DUP3 PUSH2 0x122 JUMP JUMPDEST SWAP2 POP PUSH2 0x266 DUP4 PUSH2 0x122 JUMP JUMPDEST SWAP3 POP DUP3 DUP3 ADD SWAP1 POP DUP1 DUP3 GT ISZERO PUSH2 0x27E JUMPI PUSH2 0x27D PUSH2 0x224 JUMP JUMPDEST JUMPDEST SWAP3 SWAP2 POP POP JUMP INVALID LOG2 PUSH5 0x6970667358 0x22 SLT KECCAK256 DUP14 DUP12 0x24 0x24 PUSH24 0x9911CF7E0D1AACDB99EED0A0ECC1EFF32B018C36985F3CCF 0xB7 0xCD 0x26 PUSH5 0x736F6C6343 STOP ADDMOD BYTE STOP CALLER "
				},
				"gasEstimates": {
					"creation": {
						"codeDepositCost": "139600",
						"executionCost": "181",
						"totalCost": "139781"
					},
					"external": {
						"deposit(uint256)": "infinite",
						"saldo()": "2402"
					}
				},
				"methodIdentifiers": {
					"deposit(uint256)": "b6b55f25",
					"saldo()": "a41de865"
				}
			},
			"storageLayout": {
				"storage": [
					{
						"astId": 3,
						"contract": "LoggingBalance.sol:LoggingDemo",
						"label": "saldo",
						"offset": 0,
						"slot": "0",
						"type": "t_uint256"
					}
				],
				"types": {
					"t_uint256": {
						"encoding": "inplace",
						"label": "uint256",
						"numberOfBytes": "32"
					}
				}
			},
			"userdoc": {
				"kind": "user",
				"methods": {},
				"version": 1
			}
		}
	}
}