{
	"GasOptimization.sol": {
		"GasOptimized": {
			"abi": [
				{
					"inputs": [],
					"name": "data",
					"outputs": [
						{
							"internalType": "string",
							"name": "",
							"type": "string"
						}
					],
					"stateMutability": "view",
					"type": "function"
				},
				{
					"inputs": [
						{
							"internalType": "string",
							"name": "_newData",
							"type": "string"
						}
					],
					"name": "updateBoros",
					"outputs": [],
					"stateMutability": "nonpayable",
					"type": "function"
				},
				{
					"inputs": [
						{
							"internalType": "string",
							"name": "_newData",
							"type": "string"
						}
					],
					"name": "updateHemat",
					"outputs": [],
					"stateMutability": "nonpayable",
					"type": "function"
				}
			],
			"devdoc": {
				"kind": "dev",
				"methods": {},
				"version": 1
			},
			"evm": {
				"assembly": "    /* \"GasOptimization.sol\":67:436  contract GasOptimized {... */\n  mstore(0x40, 0x80)\n  callvalue\n  dup1\n  iszero\n  tag_1\n  jumpi\n  0x00\n  dup1\n  revert\ntag_1:\n  pop\n  dataSize(sub_0)\n  dup1\n  dataOffset(sub_0)\n  0x00\n  codecopy\n  0x00\n  return\nstop\n\nsub_0: assembly {\n        /* \"GasOptimization.sol\":67:436  contract GasOptimized {... */\n      mstore(0x40, 0x80)\n      callvalue\n      dup1\n      iszero\n      tag_1\n      jumpi\n      0x00\n      dup1\n      revert\n    tag_1:\n      pop\n      jumpi(tag_2, lt(calldatasize, 0x04))\n      shr(0xe0, calldataload(0x00))\n      dup1\n      0x73d4a13a\n      eq\n      tag_3\n      jumpi\n      dup1\n      0x7fdb2d64\n      eq\n      tag_4\n      jumpi\n      dup1\n      0xb38ff7aa\n      eq\n      tag_5\n      jumpi\n    tag_2:\n      0x00\n      dup1\n      revert\n        /* \"GasOptimization.sol\":96:114  string public data */\n    tag_3:\n      tag_6\n      tag_7\n      jump\t// in\n    tag_6:\n      mload(0x40)\n      tag_8\n      swap2\n      swap1\n      tag_9\n      jump\t// in\n    tag_8:\n      mload(0x40)\n      dup1\n      swap2\n      sub\n      swap1\n      return\n        /* \"GasOptimization.sol\":345:433  function updateHemat(string calldata _newData) public {... */\n    tag_4:\n      tag_10\n      0x04\n      dup1\n      calldatasize\n      sub\n      dup2\n      add\n      swap1\n      tag_11\n      swap2\n      swap1\n      tag_12\n      jump\t// in\n    tag_11:\n      tag_13\n      jump\t// in\n    tag_10:\n      stop\n        /* \"GasOptimization.sol\":172:258  function updateBoros(string memory _newData) public {... */\n    tag_5:\n      tag_14\n      0x04\n      dup1\n      calldatasize\n      sub\n      dup2\n      add\n      swap1\n      tag_15\n      swap2\n      swap1\n      tag_16\n      jump\t// in\n    tag_15:\n      tag_17\n      jump\t// in\n    tag_14:\n      stop\n        /* \"GasOptimization.sol\":96:114  string public data */\n    tag_7:\n      0x00\n      dup1\n      sload\n      tag_18\n      swap1\n      tag_19\n      jump\t// in\n    tag_18:\n      dup1\n      0x1f\n      add\n      0x20\n      dup1\n      swap2\n      div\n      mul\n      0x20\n      add\n      mload(0x40)\n      swap1\n      dup2\n      add\n      0x40\n      mstore\n      dup1\n      swap3\n      swap2\n      swap1\n      dup2\n      dup2\n      mstore\n      0x20\n      add\n      dup3\n      dup1\n      sload\n      tag_20\n      swap1\n      tag_19\n      jump\t// in\n    tag_20:\n      dup1\n      iszero\n      tag_21\n      jumpi\n      dup1\n      0x1f\n      lt\n      tag_22\n      jumpi\n      0x0100\n      dup1\n      dup4\n      sload\n      div\n      mul\n      dup4\n      mstore\n      swap2\n      0x20\n      add\n      swap2\n      jump(tag_21)\n    tag_22:\n      dup3\n      add\n      swap2\n      swap1\n      0x00\n      mstore\n      keccak256(0x00, 0x20)\n      swap1\n    tag_23:\n      dup2\n      sload\n      dup2\n      mstore\n      swap1\n      0x01\n      add\n      swap1\n      0x20\n      add\n      dup1\n      dup4\n      gt\n      tag_23\n      jumpi\n      dup3\n      swap1\n      sub\n      0x1f\n      and\n      dup3\n      add\n      swap2\n    tag_21:\n      pop\n      pop\n      pop\n      pop\n      pop\n      dup2\n      jump\t// out\n        /* \"GasOptimization.sol\":345:433  function updateHemat(string calldata _newData) public {... */\n    tag_13:\n        /* \"GasOptimization.sol\":417:425  _newData */\n      dup2\n      dup2\n        /* \"GasOptimization.sol\":410:414  data */\n      0x00\n        /* \"GasOptimization.sol\":410:425  data = _newData */\n      swap2\n      dup3\n      tag_25\n      swap3\n      swap2\n      swap1\n      tag_26\n      jump\t// in\n    tag_25:\n      pop\n        /* \"GasOptimization.sol\":345:433  function updateHemat(string calldata _newData) public {... */\n      pop\n      pop\n      jump\t// out\n        /* \"GasOptimization.sol\":172:258  function updateBoros(string memory _newData) public {... */\n    tag_17:\n        /* \"GasOptimization.sol\":242:250  _newData */\n      dup1\n        /* \"GasOptimization.sol\":235:239  data */\n      0x00\n        /* \"GasOptimization.sol\":235:250  data = _newData */\n      swap1\n      dup2\n      tag_28\n      swap2\n      swap1\n      tag_29\n      jump\t// in\n    tag_28:\n      pop\n        /* \"GasOptimization.sol\":172:258  function updateBoros(string memory _newData) public {... */\n      pop\n      jump\t// out\n        /* \"#utility.yul\":7:106   */\n    tag_30:\n        /* \"#utility.yul\":59:65   */\n      0x00\n        /* \"#utility.yul\":93:98   */\n      dup2\n        /* \"#utility.yul\":87:99   */\n      mload\n        /* \"#utility.yul\":77:99   */\n      swap1\n      pop\n        /* \"#utility.yul\":7:106   */\n      swap2\n      swap1\n      pop\n      jump\t// out\n        /* \"#utility.yul\":112:281   */\n    tag_31:\n        /* \"#utility.yul\":196:207   */\n      0x00\n        /* \"#utility.yul\":230:236   */\n      dup3\n        /* \"#utility.yul\":225:228   */\n      dup3\n        /* \"#utility.yul\":218:237   */\n      mstore\n        /* \"#utility.yul\":270:274   */\n      0x20\n        /* \"#utility.yul\":265:268   */\n      dup3\n        /* \"#utility.yul\":261:275   */\n      add\n        /* \"#utility.yul\":246:275   */\n      swap1\n      pop\n        /* \"#utility.yul\":112:281   */\n      swap3\n      swap2\n      pop\n      pop\n      jump\t// out\n        /* \"#utility.yul\":287:426   */\n    tag_32:\n        /* \"#utility.yul\":376:382   */\n      dup3\n        /* \"#utility.yul\":371:374   */\n      dup2\n        /* \"#utility.yul\":366:369   */\n      dup4\n        /* \"#utility.yul\":360:383   */\n      mcopy\n        /* \"#utility.yul\":417:418   */\n      0x00\n        /* \"#utility.yul\":408:414   */\n      dup4\n        /* \"#utility.yul\":403:406   */\n      dup4\n        /* \"#utility.yul\":399:415   */\n      add\n        /* \"#utility.yul\":392:419   */\n      mstore\n        /* \"#utility.yul\":287:426   */\n      pop\n      pop\n      pop\n      jump\t// out\n        /* \"#utility.yul\":432:534   */\n    tag_33:\n        /* \"#utility.yul\":473:479   */\n      0x00\n        /* \"#utility.yul\":524:526   */\n      0x1f\n        /* \"#utility.yul\":520:527   */\n      not\n        /* \"#utility.yul\":515:517   */\n      0x1f\n        /* \"#utility.yul\":508:513   */\n      dup4\n        /* \"#utility.yul\":504:518   */\n      add\n        /* \"#utility.yul\":500:528   */\n      and\n        /* \"#utility.yul\":490:528   */\n      swap1\n      pop\n        /* \"#utility.yul\":432:534   */\n      swap2\n      swap1\n      pop\n      jump\t// out\n        /* \"#utility.yul\":540:917   */\n    tag_34:\n        /* \"#utility.yul\":628:631   */\n      0x00\n        /* \"#utility.yul\":656:695   */\n      tag_74\n        /* \"#utility.yul\":689:694   */\n      dup3\n        /* \"#utility.yul\":656:695   */\n      tag_30\n      jump\t// in\n    tag_74:\n        /* \"#utility.yul\":711:782   */\n      tag_75\n        /* \"#utility.yul\":775:781   */\n      dup2\n        /* \"#utility.yul\":770:773   */\n      dup6\n        /* \"#utility.yul\":711:782   */\n      tag_31\n      jump\t// in\n    tag_75:\n        /* \"#utility.yul\":704:782   */\n      swap4\n      pop\n        /* \"#utility.yul\":791:856   */\n      tag_76\n        /* \"#utility.yul\":849:855   */\n      dup2\n        /* \"#utility.yul\":844:847   */\n      dup6\n        /* \"#utility.yul\":837:841   */\n      0x20\n        /* \"#utility.yul\":830:835   */\n      dup7\n        /* \"#utility.yul\":826:842   */\n      add\n        /* \"#utility.yul\":791:856   */\n      tag_32\n      jump\t// in\n    tag_76:\n        /* \"#utility.yul\":881:910   */\n      tag_77\n        /* \"#utility.yul\":903:909   */\n      dup2\n        /* \"#utility.yul\":881:910   */\n      tag_33\n      jump\t// in\n    tag_77:\n        /* \"#utility.yul\":876:879   */\n      dup5\n        /* \"#utility.yul\":872:911   */\n      add\n        /* \"#utility.yul\":865:911   */\n      swap2\n      pop\n        /* \"#utility.yul\":632:917   */\n      pop\n        /* \"#utility.yul\":540:917   */\n      swap3\n      swap2\n      pop\n      pop\n      jump\t// out\n        /* \"#utility.yul\":923:1236   */\n    tag_9:\n        /* \"#utility.yul\":1036:1040   */\n      0x00\n        /* \"#utility.yul\":1074:1076   */\n      0x20\n        /* \"#utility.yul\":1063:1072   */\n      dup3\n        /* \"#utility.yul\":1059:1077   */\n      add\n        /* \"#utility.yul\":1051:1077   */\n      swap1\n      pop\n        /* \"#utility.yul\":1123:1132   */\n      dup2\n        /* \"#utility.yul\":1117:1121   */\n      dup2\n        /* \"#utility.yul\":1113:1133   */\n      sub\n        /* \"#utility.yul\":1109:1110   */\n      0x00\n        /* \"#utility.yul\":1098:1107   */\n      dup4\n        /* \"#utility.yul\":1094:1111   */\n      add\n        /* \"#utility.yul\":1087:1134   */\n      mstore\n        /* \"#utility.yul\":1151:1229   */\n      tag_79\n        /* \"#utility.yul\":1224:1228   */\n      dup2\n        /* \"#utility.yul\":1215:1221   */\n      dup5\n        /* \"#utility.yul\":1151:1229   */\n      tag_34\n      jump\t// in\n    tag_79:\n        /* \"#utility.yul\":1143:1229   */\n      swap1\n      pop\n        /* \"#utility.yul\":923:1236   */\n      swap3\n      swap2\n      pop\n      pop\n      jump\t// out\n        /* \"#utility.yul\":1242:1317   */\n    tag_35:\n        /* \"#utility.yul\":1275:1281   */\n      0x00\n        /* \"#utility.yul\":1308:1310   */\n      0x40\n        /* \"#utility.yul\":1302:1311   */\n      mload\n        /* \"#utility.yul\":1292:1311   */\n      swap1\n      pop\n        /* \"#utility.yul\":1242:1317   */\n      swap1\n      jump\t// out\n        /* \"#utility.yul\":1323:1440   */\n    tag_36:\n        /* \"#utility.yul\":1432:1433   */\n      0x00\n        /* \"#utility.yul\":1429:1430   */\n      dup1\n        /* \"#utility.yul\":1422:1434   */\n      revert\n        /* \"#utility.yul\":1446:1563   */\n    tag_37:\n        /* \"#utility.yul\":1555:1556   */\n      0x00\n        /* \"#utility.yul\":1552:1553   */\n      dup1\n        /* \"#utility.yul\":1545:1557   */\n      revert\n        /* \"#utility.yul\":1569:1686   */\n    tag_38:\n        /* \"#utility.yul\":1678:1679   */\n      0x00\n        /* \"#utility.yul\":1675:1676   */\n      dup1\n        /* \"#utility.yul\":1668:1680   */\n      revert\n        /* \"#utility.yul\":1692:1809   */\n    tag_39:\n        /* \"#utility.yul\":1801:1802   */\n      0x00\n        /* \"#utility.yul\":1798:1799   */\n      dup1\n        /* \"#utility.yul\":1791:1803   */\n      revert\n        /* \"#utility.yul\":1815:1932   */\n    tag_40:\n        /* \"#utility.yul\":1924:1925   */\n      0x00\n        /* \"#utility.yul\":1921:1922   */\n      dup1\n        /* \"#utility.yul\":1914:1926   */\n      revert\n        /* \"#utility.yul\":1952:2505   */\n    tag_41:\n        /* \"#utility.yul\":2010:2018   */\n      0x00\n        /* \"#utility.yul\":2020:2026   */\n      dup1\n        /* \"#utility.yul\":2070:2073   */\n      dup4\n        /* \"#utility.yul\":2063:2067   */\n      0x1f\n        /* \"#utility.yul\":2055:2061   */\n      dup5\n        /* \"#utility.yul\":2051:2068   */\n      add\n        /* \"#utility.yul\":2047:2074   */\n      slt\n        /* \"#utility.yul\":2037:2159   */\n      tag_87\n      jumpi\n        /* \"#utility.yul\":2078:2157   */\n      tag_88\n      tag_38\n      jump\t// in\n    tag_88:\n        /* \"#utility.yul\":2037:2159   */\n    tag_87:\n        /* \"#utility.yul\":2191:2197   */\n      dup3\n        /* \"#utility.yul\":2178:2198   */\n      calldataload\n        /* \"#utility.yul\":2168:2198   */\n      swap1\n      pop\n        /* \"#utility.yul\":2221:2239   */\n      0xffffffffffffffff\n        /* \"#utility.yul\":2213:2219   */\n      dup2\n        /* \"#utility.yul\":2210:2240   */\n      gt\n        /* \"#utility.yul\":2207:2324   */\n      iszero\n      tag_89\n      jumpi\n        /* \"#utility.yul\":2243:2322   */\n      tag_90\n      tag_39\n      jump\t// in\n    tag_90:\n        /* \"#utility.yul\":2207:2324   */\n    tag_89:\n        /* \"#utility.yul\":2357:2361   */\n      0x20\n        /* \"#utility.yul\":2349:2355   */\n      dup4\n        /* \"#utility.yul\":2345:2362   */\n      add\n        /* \"#utility.yul\":2333:2362   */\n      swap2\n      pop\n        /* \"#utility.yul\":2411:2414   */\n      dup4\n        /* \"#utility.yul\":2403:2407   */\n      0x01\n        /* \"#utility.yul\":2395:2401   */\n      dup3\n        /* \"#utility.yul\":2391:2408   */\n      mul\n        /* \"#utility.yul\":2381:2389   */\n      dup4\n        /* \"#utility.yul\":2377:2409   */\n      add\n        /* \"#utility.yul\":2374:2415   */\n      gt\n        /* \"#utility.yul\":2371:2499   */\n      iszero\n      tag_91\n      jumpi\n        /* \"#utility.yul\":2418:2497   */\n      tag_92\n      tag_40\n      jump\t// in\n    tag_92:\n        /* \"#utility.yul\":2371:2499   */\n    tag_91:\n        /* \"#utility.yul\":1952:2505   */\n      swap3\n      pop\n      swap3\n      swap1\n      pop\n      jump\t// out\n        /* \"#utility.yul\":2511:3040   */\n    tag_12:\n        /* \"#utility.yul\":2582:2588   */\n      0x00\n        /* \"#utility.yul\":2590:2596   */\n      dup1\n        /* \"#utility.yul\":2639:2641   */\n      0x20\n        /* \"#utility.yul\":2627:2636   */\n      dup4\n        /* \"#utility.yul\":2618:2625   */\n      dup6\n        /* \"#utility.yul\":2614:2637   */\n      sub\n        /* \"#utility.yul\":2610:2642   */\n      slt\n        /* \"#utility.yul\":2607:2726   */\n      iszero\n      tag_94\n      jumpi\n        /* \"#utility.yul\":2645:2724   */\n      tag_95\n      tag_36\n      jump\t// in\n    tag_95:\n        /* \"#utility.yul\":2607:2726   */\n    tag_94:\n        /* \"#utility.yul\":2793:2794   */\n      0x00\n        /* \"#utility.yul\":2782:2791   */\n      dup4\n        /* \"#utility.yul\":2778:2795   */\n      add\n        /* \"#utility.yul\":2765:2796   */\n      calldataload\n        /* \"#utility.yul\":2823:2841   */\n      0xffffffffffffffff\n        /* \"#utility.yul\":2815:2821   */\n      dup2\n        /* \"#utility.yul\":2812:2842   */\n      gt\n        /* \"#utility.yul\":2809:2926   */\n      iszero\n      tag_96\n      jumpi\n        /* \"#utility.yul\":2845:2924   */\n      tag_97\n      tag_37\n      jump\t// in\n    tag_97:\n        /* \"#utility.yul\":2809:2926   */\n    tag_96:\n        /* \"#utility.yul\":2958:3023   */\n      tag_98\n        /* \"#utility.yul\":3015:3022   */\n      dup6\n        /* \"#utility.yul\":3006:3012   */\n      dup3\n        /* \"#utility.yul\":2995:3004   */\n      dup7\n        /* \"#utility.yul\":2991:3013   */\n      add\n        /* \"#utility.yul\":2958:3023   */\n      tag_41\n      jump\t// in\n    tag_98:\n        /* \"#utility.yul\":2940:3023   */\n      swap3\n      pop\n      swap3\n      pop\n        /* \"#utility.yul\":2736:3033   */\n      pop\n        /* \"#utility.yul\":2511:3040   */\n      swap3\n      pop\n      swap3\n      swap1\n      pop\n      jump\t// out\n        /* \"#utility.yul\":3046:3163   */\n    tag_42:\n        /* \"#utility.yul\":3155:3156   */\n      0x00\n        /* \"#utility.yul\":3152:3153   */\n      dup1\n        /* \"#utility.yul\":3145:3157   */\n      revert\n        /* \"#utility.yul\":3169:3349   */\n    tag_43:\n        /* \"#utility.yul\":3217:3294   */\n      0x4e487b7100000000000000000000000000000000000000000000000000000000\n        /* \"#utility.yul\":3214:3215   */\n      0x00\n        /* \"#utility.yul\":3207:3295   */\n      mstore\n        /* \"#utility.yul\":3314:3318   */\n      0x41\n        /* \"#utility.yul\":3311:3312   */\n      0x04\n        /* \"#utility.yul\":3304:3319   */\n      mstore\n        /* \"#utility.yul\":3338:3342   */\n      0x24\n        /* \"#utility.yul\":3335:3336   */\n      0x00\n        /* \"#utility.yul\":3328:3343   */\n      revert\n        /* \"#utility.yul\":3355:3636   */\n    tag_44:\n        /* \"#utility.yul\":3438:3465   */\n      tag_102\n        /* \"#utility.yul\":3460:3464   */\n      dup3\n        /* \"#utility.yul\":3438:3465   */\n      tag_33\n      jump\t// in\n    tag_102:\n        /* \"#utility.yul\":3430:3436   */\n      dup2\n        /* \"#utility.yul\":3426:3466   */\n      add\n        /* \"#utility.yul\":3568:3574   */\n      dup2\n        /* \"#utility.yul\":3556:3566   */\n      dup2\n        /* \"#utility.yul\":3553:3575   */\n      lt\n        /* \"#utility.yul\":3532:3550   */\n      0xffffffffffffffff\n        /* \"#utility.yul\":3520:3530   */\n      dup3\n        /* \"#utility.yul\":3517:3551   */\n      gt\n        /* \"#utility.yul\":3514:3576   */\n      or\n        /* \"#utility.yul\":3511:3599   */\n      iszero\n      tag_103\n      jumpi\n        /* \"#utility.yul\":3579:3597   */\n      tag_104\n      tag_43\n      jump\t// in\n    tag_104:\n        /* \"#utility.yul\":3511:3599   */\n    tag_103:\n        /* \"#utility.yul\":3619:3629   */\n      dup1\n        /* \"#utility.yul\":3615:3617   */\n      0x40\n        /* \"#utility.yul\":3608:3630   */\n      mstore\n        /* \"#utility.yul\":3398:3636   */\n      pop\n        /* \"#utility.yul\":3355:3636   */\n      pop\n      pop\n      jump\t// out\n        /* \"#utility.yul\":3642:3771   */\n    tag_45:\n        /* \"#utility.yul\":3676:3682   */\n      0x00\n        /* \"#utility.yul\":3703:3723   */\n      tag_106\n      tag_35\n      jump\t// in\n    tag_106:\n        /* \"#utility.yul\":3693:3723   */\n      swap1\n      pop\n        /* \"#utility.yul\":3732:3765   */\n      tag_107\n        /* \"#utility.yul\":3760:3764   */\n      dup3\n        /* \"#utility.yul\":3752:3758   */\n      dup3\n        /* \"#utility.yul\":3732:3765   */\n      tag_44\n      jump\t// in\n    tag_107:\n        /* \"#utility.yul\":3642:3771   */\n      swap2\n      swap1\n      pop\n      jump\t// out\n        /* \"#utility.yul\":3777:4085   */\n    tag_46:\n        /* \"#utility.yul\":3839:3843   */\n      0x00\n        /* \"#utility.yul\":3929:3947   */\n      0xffffffffffffffff\n        /* \"#utility.yul\":3921:3927   */\n      dup3\n        /* \"#utility.yul\":3918:3948   */\n      gt\n        /* \"#utility.yul\":3915:3971   */\n      iszero\n      tag_109\n      jumpi\n        /* \"#utility.yul\":3951:3969   */\n      tag_110\n      tag_43\n      jump\t// in\n    tag_110:\n        /* \"#utility.yul\":3915:3971   */\n    tag_109:\n        /* \"#utility.yul\":3989:4018   */\n      tag_111\n        /* \"#utility.yul\":4011:4017   */\n      dup3\n        /* \"#utility.yul\":3989:4018   */\n      tag_33\n      jump\t// in\n    tag_111:\n        /* \"#utility.yul\":3981:4018   */\n      swap1\n      pop\n        /* \"#utility.yul\":4073:4077   */\n      0x20\n        /* \"#utility.yul\":4067:4071   */\n      dup2\n        /* \"#utility.yul\":4063:4078   */\n      add\n        /* \"#utility.yul\":4055:4078   */\n      swap1\n      pop\n        /* \"#utility.yul\":3777:4085   */\n      swap2\n      swap1\n      pop\n      jump\t// out\n        /* \"#utility.yul\":4091:4239   */\n    tag_47:\n        /* \"#utility.yul\":4189:4195   */\n      dup3\n        /* \"#utility.yul\":4184:4187   */\n      dup2\n        /* \"#utility.yul\":4179:4182   */\n      dup4\n        /* \"#utility.yul\":4166:4196   */\n      calldatacopy\n        /* \"#utility.yul\":4230:4231   */\n      0x00\n        /* \"#utility.yul\":4221:4227   */\n      dup4\n        /* \"#utility.yul\":4216:4219   */\n      dup4\n        /* \"#utility.yul\":4212:4228   */\n      add\n        /* \"#utility.yul\":4205:4232   */\n      mstore\n        /* \"#utility.yul\":4091:4239   */\n      pop\n      pop\n      pop\n      jump\t// out\n        /* \"#utility.yul\":4245:4670   */\n    tag_48:\n        /* \"#utility.yul\":4323:4328   */\n      0x00\n        /* \"#utility.yul\":4348:4414   */\n      tag_114\n        /* \"#utility.yul\":4364:4413   */\n      tag_115\n        /* \"#utility.yul\":4406:4412   */\n      dup5\n        /* \"#utility.yul\":4364:4413   */\n      tag_46\n      jump\t// in\n    tag_115:\n        /* \"#utility.yul\":4348:4414   */\n      tag_45\n      jump\t// in\n    tag_114:\n        /* \"#utility.yul\":4339:4414   */\n      swap1\n      pop\n        /* \"#utility.yul\":4437:4443   */\n      dup3\n        /* \"#utility.yul\":4430:4435   */\n      dup2\n        /* \"#utility.yul\":4423:4444   */\n      mstore\n        /* \"#utility.yul\":4475:4479   */\n      0x20\n        /* \"#utility.yul\":4468:4473   */\n      dup2\n        /* \"#utility.yul\":4464:4480   */\n      add\n        /* \"#utility.yul\":4513:4516   */\n      dup5\n        /* \"#utility.yul\":4504:4510   */\n      dup5\n        /* \"#utility.yul\":4499:4502   */\n      dup5\n        /* \"#utility.yul\":4495:4511   */\n      add\n        /* \"#utility.yul\":4492:4517   */\n      gt\n        /* \"#utility.yul\":4489:4601   */\n      iszero\n      tag_116\n      jumpi\n        /* \"#utility.yul\":4520:4599   */\n      tag_117\n      tag_42\n      jump\t// in\n    tag_117:\n        /* \"#utility.yul\":4489:4601   */\n    tag_116:\n        /* \"#utility.yul\":4610:4664   */\n      tag_118\n        /* \"#utility.yul\":4657:4663   */\n      dup5\n        /* \"#utility.yul\":4652:4655   */\n      dup3\n        /* \"#utility.yul\":4647:4650   */\n      dup6\n        /* \"#utility.yul\":4610:4664   */\n      tag_47\n      jump\t// in\n    tag_118:\n        /* \"#utility.yul\":4329:4670   */\n      pop\n        /* \"#utility.yul\":4245:4670   */\n      swap4\n      swap3\n      pop\n      pop\n      pop\n      jump\t// out\n        /* \"#utility.yul\":4690:5030   */\n    tag_49:\n        /* \"#utility.yul\":4746:4751   */\n      0x00\n        /* \"#utility.yul\":4795:4798   */\n      dup3\n        /* \"#utility.yul\":4788:4792   */\n      0x1f\n        /* \"#utility.yul\":4780:4786   */\n      dup4\n        /* \"#utility.yul\":4776:4793   */\n      add\n        /* \"#utility.yul\":4772:4799   */\n      slt\n        /* \"#utility.yul\":4762:4884   */\n      tag_120\n      jumpi\n        /* \"#utility.yul\":4803:4882   */\n      tag_121\n      tag_38\n      jump\t// in\n    tag_121:\n        /* \"#utility.yul\":4762:4884   */\n    tag_120:\n        /* \"#utility.yul\":4920:4926   */\n      dup2\n        /* \"#utility.yul\":4907:4927   */\n      calldataload\n        /* \"#utility.yul\":4945:5024   */\n      tag_122\n        /* \"#utility.yul\":5020:5023   */\n      dup5\n        /* \"#utility.yul\":5012:5018   */\n      dup3\n        /* \"#utility.yul\":5005:5009   */\n      0x20\n        /* \"#utility.yul\":4997:5003   */\n      dup7\n        /* \"#utility.yul\":4993:5010   */\n      add\n        /* \"#utility.yul\":4945:5024   */\n      tag_48\n      jump\t// in\n    tag_122:\n        /* \"#utility.yul\":4936:5024   */\n      swap2\n      pop\n        /* \"#utility.yul\":4752:5030   */\n      pop\n        /* \"#utility.yul\":4690:5030   */\n      swap3\n      swap2\n      pop\n      pop\n      jump\t// out\n        /* \"#utility.yul\":5036:5545   */\n    tag_16:\n        /* \"#utility.yul\":5105:5111   */\n      0x00\n        /* \"#utility.yul\":5154:5156   */\n      0x20\n        /* \"#utility.yul\":5142:5151   */\n      dup3\n        /* \"#utility.yul\":5133:5140   */\n      dup5\n        /* \"#utility.yul\":5129:5152   */\n      sub\n        /* \"#utility.yul\":5125:5157   */\n      slt\n        /* \"#utility.yul\":5122:5241   */\n      iszero\n      tag_124\n      jumpi\n        /* \"#utility.yul\":5160:5239   */\n      tag_125\n      tag_36\n      jump\t// in\n    tag_125:\n        /* \"#utility.yul\":5122:5241   */\n    tag_124:\n        /* \"#utility.yul\":5308:5309   */\n      0x00\n        /* \"#utility.yul\":5297:5306   */\n      dup3\n        /* \"#utility.yul\":5293:5310   */\n      add\n        /* \"#utility.yul\":5280:5311   */\n      calldataload\n        /* \"#utility.yul\":5338:5356   */\n      0xffffffffffffffff\n        /* \"#utility.yul\":5330:5336   */\n      dup2\n        /* \"#utility.yul\":5327:5357   */\n      gt\n        /* \"#utility.yul\":5324:5441   */\n      iszero\n      tag_126\n      jumpi\n        /* \"#utility.yul\":5360:5439   */\n      tag_127\n      tag_37\n      jump\t// in\n    tag_127:\n        /* \"#utility.yul\":5324:5441   */\n    tag_126:\n        /* \"#utility.yul\":5465:5528   */\n      tag_128\n        /* \"#utility.yul\":5520:5527   */\n      dup5\n        /* \"#utility.yul\":5511:5517   */\n      dup3\n        /* \"#utility.yul\":5500:5509   */\n      dup6\n        /* \"#utility.yul\":5496:5518   */\n      add\n        /* \"#utility.yul\":5465:5528   */\n      tag_49\n      jump\t// in\n    tag_128:\n        /* \"#utility.yul\":5455:5528   */\n      swap2\n      pop\n        /* \"#utility.yul\":5251:5538   */\n      pop\n        /* \"#utility.yul\":5036:5545   */\n      swap3\n      swap2\n      pop\n      pop\n      jump\t// out\n        /* \"#utility.yul\":5551:5731   */\n    tag_50:\n        /* \"#utility.yul\":5599:5676   */\n      0x4e487b7100000000000000000000000000000000000000000000000000000000\n        /* \"#utility.yul\":5596:5597   */\n      0x00\n        /* \"#utility.yul\":5589:5677   */\n      mstore\n        /* \"#utility.yul\":5696:5700   */\n      0x22\n        /* \"#utility.yul\":5693:5694   */\n      0x04\n        /* \"#utility.yul\":5686:5701   */\n      mstore\n        /* \"#utility.yul\":5720:5724   */\n      0x24\n        /* \"#utility.yul\":5717:5718   */\n      0x00\n        /* \"#utility.yul\":5710:5725   */\n      revert\n        /* \"#utility.yul\":5737:6057   */\n    tag_19:\n        /* \"#utility.yul\":5781:5787   */\n      0x00\n        /* \"#utility.yul\":5818:5819   */\n      0x02\n        /* \"#utility.yul\":5812:5816   */\n      dup3\n        /* \"#utility.yul\":5808:5820   */\n      div\n        /* \"#utility.yul\":5798:5820   */\n      swap1\n      pop\n        /* \"#utility.yul\":5865:5866   */\n      0x01\n        /* \"#utility.yul\":5859:5863   */\n      dup3\n        /* \"#utility.yul\":5855:5867   */\n      and\n        /* \"#utility.yul\":5886:5904   */\n      dup1\n        /* \"#utility.yul\":5876:5957   */\n      tag_131\n      jumpi\n        /* \"#utility.yul\":5942:5946   */\n      0x7f\n        /* \"#utility.yul\":5934:5940   */\n      dup3\n        /* \"#utility.yul\":5930:5947   */\n      and\n        /* \"#utility.yul\":5920:5947   */\n      swap2\n      pop\n        /* \"#utility.yul\":5876:5957   */\n    tag_131:\n        /* \"#utility.yul\":6004:6006   */\n      0x20\n        /* \"#utility.yul\":5996:6002   */\n      dup3\n        /* \"#utility.yul\":5993:6007   */\n      lt\n        /* \"#utility.yul\":5973:5991   */\n      dup2\n        /* \"#utility.yul\":5970:6008   */\n      sub\n        /* \"#utility.yul\":5967:6051   */\n      tag_132\n      jumpi\n        /* \"#utility.yul\":6023:6041   */\n      tag_133\n      tag_50\n      jump\t// in\n    tag_133:\n        /* \"#utility.yul\":5967:6051   */\n    tag_132:\n        /* \"#utility.yul\":5788:6057   */\n      pop\n        /* \"#utility.yul\":5737:6057   */\n      swap2\n      swap1\n      pop\n      jump\t// out\n        /* \"#utility.yul\":6063:6160   */\n    tag_51:\n        /* \"#utility.yul\":6122:6128   */\n      0x00\n        /* \"#utility.yul\":6150:6153   */\n      dup3\n        /* \"#utility.yul\":6140:6153   */\n      swap1\n      pop\n        /* \"#utility.yul\":6063:6160   */\n      swap3\n      swap2\n      pop\n      pop\n      jump\t// out\n        /* \"#utility.yul\":6166:6307   */\n    tag_52:\n        /* \"#utility.yul\":6215:6219   */\n      0x00\n        /* \"#utility.yul\":6238:6241   */\n      dup2\n        /* \"#utility.yul\":6230:6241   */\n      swap1\n      pop\n        /* \"#utility.yul\":6261:6264   */\n      dup2\n        /* \"#utility.yul\":6258:6259   */\n      0x00\n        /* \"#utility.yul\":6251:6265   */\n      mstore\n        /* \"#utility.yul\":6295:6299   */\n      0x20\n        /* \"#utility.yul\":6292:6293   */\n      0x00\n        /* \"#utility.yul\":6282:6300   */\n      keccak256\n        /* \"#utility.yul\":6274:6300   */\n      swap1\n      pop\n        /* \"#utility.yul\":6166:6307   */\n      swap2\n      swap1\n      pop\n      jump\t// out\n        /* \"#utility.yul\":6313:6406   */\n    tag_53:\n        /* \"#utility.yul\":6350:6356   */\n      0x00\n        /* \"#utility.yul\":6397:6399   */\n      0x20\n        /* \"#utility.yul\":6392:6394   */\n      0x1f\n        /* \"#utility.yul\":6385:6390   */\n      dup4\n        /* \"#utility.yul\":6381:6395   */\n      add\n        /* \"#utility.yul\":6377:6400   */\n      div\n        /* \"#utility.yul\":6367:6400   */\n      swap1\n      pop\n        /* \"#utility.yul\":6313:6406   */\n      swap2\n      swap1\n      pop\n      jump\t// out\n        /* \"#utility.yul\":6412:6519   */\n    tag_54:\n        /* \"#utility.yul\":6456:6464   */\n      0x00\n        /* \"#utility.yul\":6506:6511   */\n      dup3\n        /* \"#utility.yul\":6500:6504   */\n      dup3\n        /* \"#utility.yul\":6496:6512   */\n      shl\n        /* \"#utility.yul\":6475:6512   */\n      swap1\n      pop\n        /* \"#utility.yul\":6412:6519   */\n      swap3\n      swap2\n      pop\n      pop\n      jump\t// out\n        /* \"#utility.yul\":6525:6918   */\n    tag_55:\n        /* \"#utility.yul\":6594:6600   */\n      0x00\n        /* \"#utility.yul\":6644:6645   */\n      0x08\n        /* \"#utility.yul\":6632:6642   */\n      dup4\n        /* \"#utility.yul\":6628:6646   */\n      mul\n        /* \"#utility.yul\":6667:6764   */\n      tag_139\n        /* \"#utility.yul\":6697:6763   */\n      0xffffffffffffffffffffffffffffffffffffffffffffffffffffffffffffffff\n        /* \"#utility.yul\":6686:6695   */\n      dup3\n        /* \"#utility.yul\":6667:6764   */\n      tag_54\n      jump\t// in\n    tag_139:\n        /* \"#utility.yul\":6785:6824   */\n      tag_140\n        /* \"#utility.yul\":6815:6823   */\n      dup7\n        /* \"#utility.yul\":6804:6813   */\n      dup4\n        /* \"#utility.yul\":6785:6824   */\n      tag_54\n      jump\t// in\n    tag_140:\n        /* \"#utility.yul\":6773:6824   */\n      swap6\n      pop\n        /* \"#utility.yul\":6857:6861   */\n      dup1\n        /* \"#utility.yul\":6853:6862   */\n      not\n        /* \"#utility.yul\":6846:6851   */\n      dup5\n        /* \"#utility.yul\":6842:6863   */\n      and\n        /* \"#utility.yul\":6833:6863   */\n      swap4\n      pop\n        /* \"#utility.yul\":6906:6910   */\n      dup1\n        /* \"#utility.yul\":6896:6904   */\n      dup7\n        /* \"#utility.yul\":6892:6911   */\n      and\n        /* \"#utility.yul\":6885:6890   */\n      dup5\n        /* \"#utility.yul\":6882:6912   */\n      or\n        /* \"#utility.yul\":6872:6912   */\n      swap3\n      pop\n        /* \"#utility.yul\":6601:6918   */\n      pop\n      pop\n        /* \"#utility.yul\":6525:6918   */\n      swap4\n      swap3\n      pop\n      pop\n      pop\n      jump\t// out\n        /* \"#utility.yul\":6924:7001   */\n    tag_56:\n        /* \"#utility.yul\":6961:6968   */\n      0x00\n        /* \"#utility.yul\":6990:6995   */\n      dup2\n        /* \"#utility.yul\":6979:6995   */\n      swap1\n      pop\n        /* \"#utility.yul\":6924:7001   */\n      swap2\n      swap1\n      pop\n      jump\t// out\n        /* \"#utility.yul\":7007:7067   */\n    tag_57:\n        /* \"#utility.yul\":7035:7038   */\n      0x00\n        /* \"#utility.yul\":7056:7061   */\n      dup2\n        /* \"#utility.yul\":7049:7061   */\n      swap1\n      pop\n        /* \"#utility.yul\":7007:7067   */\n      swap2\n      swap1\n      pop\n      jump\t// out\n        /* \"#utility.yul\":7073:7215   */\n    tag_58:\n        /* \"#utility.yul\":7123:7132   */\n      0x00\n        /* \"#utility.yul\":7156:7209   */\n      tag_144\n        /* \"#utility.yul\":7174:7208   */\n      tag_145\n        /* \"#utility.yul\":7183:7207   */\n      tag_146\n        /* \"#utility.yul\":7201:7206   */\n      dup5\n        /* \"#utility.yul\":7183:7207   */\n      tag_56\n      jump\t// in\n    tag_146:\n        /* \"#utility.yul\":7174:7208   */\n      tag_57\n      jump\t// in\n    tag_145:\n        /* \"#utility.yul\":7156:7209   */\n      tag_56\n      jump\t// in\n    tag_144:\n        /* \"#utility.yul\":7143:7209   */\n      swap1\n      pop\n        /* \"#utility.yul\":7073:7215   */\n      swap2\n      swap1\n      pop\n      jump\t// out\n        /* \"#utility.yul\":7221:7296   */\n    tag_59:\n        /* \"#utility.yul\":7264:7267   */\n      0x00\n        /* \"#utility.yul\":7285:7290   */\n      dup2\n        /* \"#utility.yul\":7278:7290   */\n      swap1\n      pop\n        /* \"#utility.yul\":7221:7296   */\n      swap2\n      swap1\n      pop\n      jump\t// out\n        /* \"#utility.yul\":7302:7571   */\n    tag_60:\n        /* \"#utility.yul\":7412:7451   */\n      tag_149\n        /* \"#utility.yul\":7443:7450   */\n      dup4\n        /* \"#utility.yul\":7412:7451   */\n      tag_58\n      jump\t// in\n    tag_149:\n        /* \"#utility.yul\":7473:7564   */\n      tag_150\n        /* \"#utility.yul\":7522:7563   */\n      tag_151\n        /* \"#utility.yul\":7546:7562   */\n      dup3\n        /* \"#utility.yul\":7522:7563   */\n      tag_59\n      jump\t// in\n    tag_151:\n        /* \"#utility.yul\":7514:7520   */\n      dup5\n        /* \"#utility.yul\":7507:7511   */\n      dup5\n        /* \"#utility.yul\":7501:7512   */\n      sload\n        /* \"#utility.yul\":7473:7564   */\n      tag_55\n      jump\t// in\n    tag_150:\n        /* \"#utility.yul\":7467:7471   */\n      dup3\n        /* \"#utility.yul\":7460:7565   */\n      sstore\n        /* \"#utility.yul\":7378:7571   */\n      pop\n        /* \"#utility.yul\":7302:7571   */\n      pop\n      pop\n      pop\n      jump\t// out\n        /* \"#utility.yul\":7577:7650   */\n    tag_61:\n        /* \"#utility.yul\":7622:7625   */\n      0x00\n        /* \"#utility.yul\":7577:7650   */\n      swap1\n      jump\t// out\n        /* \"#utility.yul\":7656:7845   */\n    tag_62:\n        /* \"#utility.yul\":7733:7765   */\n      tag_154\n      tag_61\n      jump\t// in\n    tag_154:\n        /* \"#utility.yul\":7774:7839   */\n      tag_155\n        /* \"#utility.yul\":7832:7838   */\n      dup2\n        /* \"#utility.yul\":7824:7830   */\n      dup5\n        /* \"#utility.yul\":7818:7822   */\n      dup5\n        /* \"#utility.yul\":7774:7839   */\n      tag_60\n      jump\t// in\n    tag_155:\n        /* \"#utility.yul\":7709:7845   */\n      pop\n        /* \"#utility.yul\":7656:7845   */\n      pop\n      pop\n      jump\t// out\n        /* \"#utility.yul\":7851:8037   */\n    tag_63:\n        /* \"#utility.yul\":7911:8031   */\n    tag_157:\n        /* \"#utility.yul\":7928:7931   */\n      dup2\n        /* \"#utility.yul\":7921:7926   */\n      dup2\n        /* \"#utility.yul\":7918:7932   */\n      lt\n        /* \"#utility.yul\":7911:8031   */\n      iszero\n      tag_159\n      jumpi\n        /* \"#utility.yul\":7982:8021   */\n      tag_160\n        /* \"#utility.yul\":8019:8020   */\n      0x00\n        /* \"#utility.yul\":8012:8017   */\n      dup3\n        /* \"#utility.yul\":7982:8021   */\n      tag_62\n      jump\t// in\n    tag_160:\n        /* \"#utility.yul\":7955:7956   */\n      0x01\n        /* \"#utility.yul\":7948:7953   */\n      dup2\n        /* \"#utility.yul\":7944:7957   */\n      add\n        /* \"#utility.yul\":7935:7957   */\n      swap1\n      pop\n        /* \"#utility.yul\":7911:8031   */\n      jump(tag_157)\n    tag_159:\n        /* \"#utility.yul\":7851:8037   */\n      pop\n      pop\n      jump\t// out\n        /* \"#utility.yul\":8043:8586   */\n    tag_64:\n        /* \"#utility.yul\":8144:8146   */\n      0x1f\n        /* \"#utility.yul\":8139:8142   */\n      dup3\n        /* \"#utility.yul\":8136:8147   */\n      gt\n        /* \"#utility.yul\":8133:8579   */\n      iszero\n      tag_162\n      jumpi\n        /* \"#utility.yul\":8178:8216   */\n      tag_163\n        /* \"#utility.yul\":8210:8215   */\n      dup2\n        /* \"#utility.yul\":8178:8216   */\n      tag_52\n      jump\t// in\n    tag_163:\n        /* \"#utility.yul\":8262:8291   */\n      tag_164\n        /* \"#utility.yul\":8280:8290   */\n      dup5\n        /* \"#utility.yul\":8262:8291   */\n      tag_53\n      jump\t// in\n    tag_164:\n        /* \"#utility.yul\":8252:8260   */\n      dup2\n        /* \"#utility.yul\":8248:8292   */\n      add\n        /* \"#utility.yul\":8445:8447   */\n      0x20\n        /* \"#utility.yul\":8433:8443   */\n      dup6\n        /* \"#utility.yul\":8430:8448   */\n      lt\n        /* \"#utility.yul\":8427:8476   */\n      iszero\n      tag_165\n      jumpi\n        /* \"#utility.yul\":8466:8474   */\n      dup2\n        /* \"#utility.yul\":8451:8474   */\n      swap1\n      pop\n        /* \"#utility.yul\":8427:8476   */\n    tag_165:\n        /* \"#utility.yul\":8489:8569   */\n      tag_166\n        /* \"#utility.yul\":8545:8567   */\n      tag_167\n        /* \"#utility.yul\":8563:8566   */\n      dup6\n        /* \"#utility.yul\":8545:8567   */\n      tag_53\n      jump\t// in\n    tag_167:\n        /* \"#utility.yul\":8535:8543   */\n      dup4\n        /* \"#utility.yul\":8531:8568   */\n      add\n        /* \"#utility.yul\":8518:8529   */\n      dup3\n        /* \"#utility.yul\":8489:8569   */\n      tag_63\n      jump\t// in\n    tag_166:\n        /* \"#utility.yul\":8148:8579   */\n      pop\n      pop\n        /* \"#utility.yul\":8133:8579   */\n    tag_162:\n        /* \"#utility.yul\":8043:8586   */\n      pop\n      pop\n      pop\n      jump\t// out\n        /* \"#utility.yul\":8592:8709   */\n    tag_65:\n        /* \"#utility.yul\":8646:8654   */\n      0x00\n        /* \"#utility.yul\":8696:8701   */\n      dup3\n        /* \"#utility.yul\":8690:8694   */\n      dup3\n        /* \"#utility.yul\":8686:8702   */\n      shr\n        /* \"#utility.yul\":8665:8702   */\n      swap1\n      pop\n        /* \"#utility.yul\":8592:8709   */\n      swap3\n      swap2\n      pop\n      pop\n      jump\t// out\n        /* \"#utility.yul\":8715:8884   */\n    tag_66:\n        /* \"#utility.yul\":8759:8765   */\n      0x00\n        /* \"#utility.yul\":8792:8843   */\n      tag_170\n        /* \"#utility.yul\":8840:8841   */\n      0x00\n        /* \"#utility.yul\":8836:8842   */\n      not\n        /* \"#utility.yul\":8828:8833   */\n      dup5\n        /* \"#utility.yul\":8825:8826   */\n      0x08\n        /* \"#utility.yul\":8821:8834   */\n      mul\n        /* \"#utility.yul\":8792:8843   */\n      tag_65\n      jump\t// in\n    tag_170:\n        /* \"#utility.yul\":8788:8844   */\n      not\n        /* \"#utility.yul\":8873:8877   */\n      dup1\n        /* \"#utility.yul\":8867:8871   */\n      dup4\n        /* \"#utility.yul\":8863:8878   */\n      and\n        /* \"#utility.yul\":8853:8878   */\n      swap2\n      pop\n        /* \"#utility.yul\":8766:8884   */\n      pop\n        /* \"#utility.yul\":8715:8884   */\n      swap3\n      swap2\n      pop\n      pop\n      jump\t// out\n        /* \"#utility.yul\":8889:9184   */\n    tag_67:\n        /* \"#utility.yul\":8965:8969   */\n      0x00\n        /* \"#utility.yul\":9111:9140   */\n      tag_172\n        /* \"#utility.yul\":9136:9139   */\n      dup4\n        /* \"#utility.yul\":9130:9134   */\n      dup4\n        /* \"#utility.yul\":9111:9140   */\n      tag_66\n      jump\t// in\n    tag_172:\n        /* \"#utility.yul\":9103:9140   */\n      swap2\n      pop\n        /* \"#utility.yul\":9173:9176   */\n      dup3\n        /* \"#utility.yul\":9170:9171   */\n      0x02\n        /* \"#utility.yul\":9166:9177   */\n      mul\n        /* \"#utility.yul\":9160:9164   */\n      dup3\n        /* \"#utility.yul\":9157:9178   */\n      or\n        /* \"#utility.yul\":9149:9178   */\n      swap1\n      pop\n        /* \"#utility.yul\":8889:9184   */\n      swap3\n      swap2\n      pop\n      pop\n      jump\t// out\n        /* \"#utility.yul\":9189:10592   */\n    tag_26:\n        /* \"#utility.yul\":9313:9357   */\n      tag_174\n        /* \"#utility.yul\":9353:9356   */\n      dup4\n        /* \"#utility.yul\":9348:9351   */\n      dup4\n        /* \"#utility.yul\":9313:9357   */\n      tag_51\n      jump\t// in\n    tag_174:\n        /* \"#utility.yul\":9422:9440   */\n      0xffffffffffffffff\n        /* \"#utility.yul\":9414:9420   */\n      dup2\n        /* \"#utility.yul\":9411:9441   */\n      gt\n        /* \"#utility.yul\":9408:9464   */\n      iszero\n      tag_175\n      jumpi\n        /* \"#utility.yul\":9444:9462   */\n      tag_176\n      tag_43\n      jump\t// in\n    tag_176:\n        /* \"#utility.yul\":9408:9464   */\n    tag_175:\n        /* \"#utility.yul\":9488:9526   */\n      tag_177\n        /* \"#utility.yul\":9520:9524   */\n      dup3\n        /* \"#utility.yul\":9514:9525   */\n      sload\n        /* \"#utility.yul\":9488:9526   */\n      tag_19\n      jump\t// in\n    tag_177:\n        /* \"#utility.yul\":9573:9640   */\n      tag_178\n        /* \"#utility.yul\":9633:9639   */\n      dup3\n        /* \"#utility.yul\":9625:9631   */\n      dup3\n        /* \"#utility.yul\":9619:9623   */\n      dup6\n        /* \"#utility.yul\":9573:9640   */\n      tag_64\n      jump\t// in\n    tag_178:\n        /* \"#utility.yul\":9667:9668   */\n      0x00\n        /* \"#utility.yul\":9696:9698   */\n      0x1f\n        /* \"#utility.yul\":9688:9694   */\n      dup4\n        /* \"#utility.yul\":9685:9699   */\n      gt\n        /* \"#utility.yul\":9713:9714   */\n      0x01\n        /* \"#utility.yul\":9708:10340   */\n      dup2\n      eq\n      tag_180\n      jumpi\n        /* \"#utility.yul\":10384:10385   */\n      0x00\n        /* \"#utility.yul\":10401:10407   */\n      dup5\n        /* \"#utility.yul\":10398:10482   */\n      iszero\n      tag_181\n      jumpi\n        /* \"#utility.yul\":10457:10466   */\n      dup3\n        /* \"#utility.yul\":10452:10455   */\n      dup8\n        /* \"#utility.yul\":10448:10467   */\n      add\n        /* \"#utility.yul\":10435:10468   */\n      calldataload\n        /* \"#utility.yul\":10426:10468   */\n      swap1\n      pop\n        /* \"#utility.yul\":10398:10482   */\n    tag_181:\n        /* \"#utility.yul\":10508:10575   */\n      tag_182\n        /* \"#utility.yul\":10568:10574   */\n      dup6\n        /* \"#utility.yul\":10561:10566   */\n      dup3\n        /* \"#utility.yul\":10508:10575   */\n      tag_67\n      jump\t// in\n    tag_182:\n        /* \"#utility.yul\":10502:10506   */\n      dup7\n        /* \"#utility.yul\":10495:10576   */\n      sstore\n        /* \"#utility.yul\":10357:10586   */\n      pop\n        /* \"#utility.yul\":9678:10586   */\n      jump(tag_179)\n        /* \"#utility.yul\":9708:10340   */\n    tag_180:\n        /* \"#utility.yul\":9760:9764   */\n      0x1f\n        /* \"#utility.yul\":9756:9765   */\n      not\n        /* \"#utility.yul\":9748:9754   */\n      dup5\n        /* \"#utility.yul\":9744:9766   */\n      and\n        /* \"#utility.yul\":9794:9831   */\n      tag_183\n        /* \"#utility.yul\":9826:9830   */\n      dup7\n        /* \"#utility.yul\":9794:9831   */\n      tag_52\n      jump\t// in\n    tag_183:\n        /* \"#utility.yul\":9853:9854   */\n      0x00\n        /* \"#utility.yul\":9867:10082   */\n    tag_184:\n        /* \"#utility.yul\":9881:9888   */\n      dup3\n        /* \"#utility.yul\":9878:9879   */\n      dup2\n        /* \"#utility.yul\":9875:9889   */\n      lt\n        /* \"#utility.yul\":9867:10082   */\n      iszero\n      tag_186\n      jumpi\n        /* \"#utility.yul\":9967:9976   */\n      dup5\n        /* \"#utility.yul\":9962:9965   */\n      dup10\n        /* \"#utility.yul\":9958:9977   */\n      add\n        /* \"#utility.yul\":9945:9978   */\n      calldataload\n        /* \"#utility.yul\":9937:9943   */\n      dup3\n        /* \"#utility.yul\":9930:9979   */\n      sstore\n        /* \"#utility.yul\":10018:10019   */\n      0x01\n        /* \"#utility.yul\":10010:10016   */\n      dup3\n        /* \"#utility.yul\":10006:10020   */\n      add\n        /* \"#utility.yul\":9996:10020   */\n      swap2\n      pop\n        /* \"#utility.yul\":10065:10067   */\n      0x20\n        /* \"#utility.yul\":10054:10063   */\n      dup6\n        /* \"#utility.yul\":10050:10068   */\n      add\n        /* \"#utility.yul\":10037:10068   */\n      swap5\n      pop\n        /* \"#utility.yul\":9904:9908   */\n      0x20\n        /* \"#utility.yul\":9901:9902   */\n      dup2\n        /* \"#utility.yul\":9897:9909   */\n      add\n        /* \"#utility.yul\":9892:9909   */\n      swap1\n      pop\n        /* \"#utility.yul\":9867:10082   */\n      jump(tag_184)\n    tag_186:\n        /* \"#utility.yul\":10110:10116   */\n      dup7\n        /* \"#utility.yul\":10101:10108   */\n      dup4\n        /* \"#utility.yul\":10098:10117   */\n      lt\n        /* \"#utility.yul\":10095:10281   */\n      iszero\n      tag_187\n      jumpi\n        /* \"#utility.yul\":10175:10184   */\n      dup5\n        /* \"#utility.yul\":10170:10173   */\n      dup10\n        /* \"#utility.yul\":10166:10185   */\n      add\n        /* \"#utility.yul\":10153:10186   */\n      calldataload\n        /* \"#utility.yul\":10218:10266   */\n      tag_188\n        /* \"#utility.yul\":10260:10264   */\n      0x1f\n        /* \"#utility.yul\":10252:10258   */\n      dup10\n        /* \"#utility.yul\":10248:10265   */\n      and\n        /* \"#utility.yul\":10237:10246   */\n      dup3\n        /* \"#utility.yul\":10218:10266   */\n      tag_66\n      jump\t// in\n    tag_188:\n        /* \"#utility.yul\":10210:10216   */\n      dup4\n        /* \"#utility.yul\":10203:10267   */\n      sstore\n        /* \"#utility.yul\":10118:10281   */\n      pop\n        /* \"#utility.yul\":10095:10281   */\n    tag_187:\n        /* \"#utility.yul\":10327:10328   */\n      0x01\n        /* \"#utility.yul\":10323:10324   */\n      0x02\n        /* \"#utility.yul\":10315:10321   */\n      dup9\n        /* \"#utility.yul\":10311:10325   */\n      mul\n        /* \"#utility.yul\":10307:10329   */\n      add\n        /* \"#utility.yul\":10301:10305   */\n      dup9\n        /* \"#utility.yul\":10294:10330   */\n      sstore\n        /* \"#utility.yul\":9715:10340   */\n      pop\n      pop\n      pop\n        /* \"#utility.yul\":9678:10586   */\n    tag_179:\n      pop\n        /* \"#utility.yul\":9288:10592   */\n      pop\n      pop\n      pop\n        /* \"#utility.yul\":9189:10592   */\n      pop\n      pop\n      pop\n      jump\t// out\n        /* \"#utility.yul\":10598:11993   */\n    tag_29:\n        /* \"#utility.yul\":10715:10752   */\n      tag_190\n        /* \"#utility.yul\":10748:10751   */\n      dup3\n        /* \"#utility.yul\":10715:10752   */\n      tag_30\n      jump\t// in\n    tag_190:\n        /* \"#utility.yul\":10817:10835   */\n      0xffffffffffffffff\n        /* \"#utility.yul\":10809:10815   */\n      dup2\n        /* \"#utility.yul\":10806:10836   */\n      gt\n        /* \"#utility.yul\":10803:10859   */\n      iszero\n      tag_191\n      jumpi\n        /* \"#utility.yul\":10839:10857   */\n      tag_192\n      tag_43\n      jump\t// in\n    tag_192:\n        /* \"#utility.yul\":10803:10859   */\n    tag_191:\n        /* \"#utility.yul\":10883:10921   */\n      tag_193\n        /* \"#utility.yul\":10915:10919   */\n      dup3\n        /* \"#utility.yul\":10909:10920   */\n      sload\n        /* \"#utility.yul\":10883:10921   */\n      tag_19\n      jump\t// in\n    tag_193:\n        /* \"#utility.yul\":10968:11035   */\n      tag_194\n        /* \"#utility.yul\":11028:11034   */\n      dup3\n        /* \"#utility.yul\":11020:11026   */\n      dup3\n        /* \"#utility.yul\":11014:11018   */\n      dup6\n        /* \"#utility.yul\":10968:11035   */\n      tag_64\n      jump\t// in\n    tag_194:\n        /* \"#utility.yul\":11062:11063   */\n      0x00\n        /* \"#utility.yul\":11086:11090   */\n      0x20\n        /* \"#utility.yul\":11073:11090   */\n      swap1\n      pop\n        /* \"#utility.yul\":11118:11120   */\n      0x1f\n        /* \"#utility.yul\":11110:11116   */\n      dup4\n        /* \"#utility.yul\":11107:11121   */\n      gt\n        /* \"#utility.yul\":11135:11136   */\n      0x01\n        /* \"#utility.yul\":11130:11748   */\n      dup2\n      eq\n      tag_196\n      jumpi\n        /* \"#utility.yul\":11792:11793   */\n      0x00\n        /* \"#utility.yul\":11809:11815   */\n      dup5\n        /* \"#utility.yul\":11806:11883   */\n      iszero\n      tag_197\n      jumpi\n        /* \"#utility.yul\":11858:11867   */\n      dup3\n        /* \"#utility.yul\":11853:11856   */\n      dup8\n        /* \"#utility.yul\":11849:11868   */\n      add\n        /* \"#utility.yul\":11843:11869   */\n      mload\n        /* \"#utility.yul\":11834:11869   */\n      swap1\n      pop\n        /* \"#utility.yul\":11806:11883   */\n    tag_197:\n        /* \"#utility.yul\":11909:11976   */\n      tag_198\n        /* \"#utility.yul\":11969:11975   */\n      dup6\n        /* \"#utility.yul\":11962:11967   */\n      dup3\n        /* \"#utility.yul\":11909:11976   */\n      tag_67\n      jump\t// in\n    tag_198:\n        /* \"#utility.yul\":11903:11907   */\n      dup7\n        /* \"#utility.yul\":11896:11977   */\n      sstore\n        /* \"#utility.yul\":11765:11987   */\n      pop\n        /* \"#utility.yul\":11100:11987   */\n      jump(tag_195)\n        /* \"#utility.yul\":11130:11748   */\n    tag_196:\n        /* \"#utility.yul\":11182:11186   */\n      0x1f\n        /* \"#utility.yul\":11178:11187   */\n      not\n        /* \"#utility.yul\":11170:11176   */\n      dup5\n        /* \"#utility.yul\":11166:11188   */\n      and\n        /* \"#utility.yul\":11216:11253   */\n      tag_199\n        /* \"#utility.yul\":11248:11252   */\n      dup7\n        /* \"#utility.yul\":11216:11253   */\n      tag_52\n      jump\t// in\n    tag_199:\n        /* \"#utility.yul\":11275:11276   */\n      0x00\n        /* \"#utility.yul\":11289:11497   */\n    tag_200:\n        /* \"#utility.yul\":11303:11310   */\n      dup3\n        /* \"#utility.yul\":11300:11301   */\n      dup2\n        /* \"#utility.yul\":11297:11311   */\n      lt\n        /* \"#utility.yul\":11289:11497   */\n      iszero\n      tag_202\n      jumpi\n        /* \"#utility.yul\":11382:11391   */\n      dup5\n        /* \"#utility.yul\":11377:11380   */\n      dup10\n        /* \"#utility.yul\":11373:11392   */\n      add\n        /* \"#utility.yul\":11367:11393   */\n      mload\n        /* \"#utility.yul\":11359:11365   */\n      dup3\n        /* \"#utility.yul\":11352:11394   */\n      sstore\n        /* \"#utility.yul\":11433:11434   */\n      0x01\n        /* \"#utility.yul\":11425:11431   */\n      dup3\n        /* \"#utility.yul\":11421:11435   */\n      add\n        /* \"#utility.yul\":11411:11435   */\n      swap2\n      pop\n        /* \"#utility.yul\":11480:11482   */\n      0x20\n        /* \"#utility.yul\":11469:11478   */\n      dup6\n        /* \"#utility.yul\":11465:11483   */\n      add\n        /* \"#utility.yul\":11452:11483   */\n      swap5\n      pop\n        /* \"#utility.yul\":11326:11330   */\n      0x20\n        /* \"#utility.yul\":11323:11324   */\n      dup2\n        /* \"#utility.yul\":11319:11331   */\n      add\n        /* \"#utility.yul\":11314:11331   */\n      swap1\n      pop\n        /* \"#utility.yul\":11289:11497   */\n      jump(tag_200)\n    tag_202:\n        /* \"#utility.yul\":11525:11531   */\n      dup7\n        /* \"#utility.yul\":11516:11523   */\n      dup4\n        /* \"#utility.yul\":11513:11532   */\n      lt\n        /* \"#utility.yul\":11510:11689   */\n      iszero\n      tag_203\n      jumpi\n        /* \"#utility.yul\":11583:11592   */\n      dup5\n        /* \"#utility.yul\":11578:11581   */\n      dup10\n        /* \"#utility.yul\":11574:11593   */\n      add\n        /* \"#utility.yul\":11568:11594   */\n      mload\n        /* \"#utility.yul\":11626:11674   */\n      tag_204\n        /* \"#utility.yul\":11668:11672   */\n      0x1f\n        /* \"#utility.yul\":11660:11666   */\n      dup10\n        /* \"#utility.yul\":11656:11673   */\n      and\n        /* \"#utility.yul\":11645:11654   */\n      dup3\n        /* \"#utility.yul\":11626:11674   */\n      tag_66\n      jump\t// in\n    tag_204:\n        /* \"#utility.yul\":11618:11624   */\n      dup4\n        /* \"#utility.yul\":11611:11675   */\n      sstore\n        /* \"#utility.yul\":11533:11689   */\n      pop\n        /* \"#utility.yul\":11510:11689   */\n    tag_203:\n        /* \"#utility.yul\":11735:11736   */\n      0x01\n        /* \"#utility.yul\":11731:11732   */\n      0x02\n        /* \"#utility.yul\":11723:11729   */\n      dup9\n        /* \"#utility.yul\":11719:11733   */\n      mul\n        /* \"#utility.yul\":11715:11737   */\n      add\n        /* \"#utility.yul\":11709:11713   */\n      dup9\n        /* \"#utility.yul\":11702:11738   */\n      sstore\n        /* \"#utility.yul\":11137:11748   */\n      pop\n      pop\n      pop\n        /* \"#utility.yul\":11100:11987   */\n    tag_195:\n      pop\n        /* \"#utility.yul\":10690:11993   */\n      pop\n      pop\n      pop\n        /* \"#utility.yul\":10598:11993   */\n      pop\n      pop\n      jump\t// out\n\n    auxdata: 0xa26469706673582212200e497a826e6ad3ae96c71844502c557d8f29f5ab234e801477cae64ad5214e6064736f6c634300081a0033\n}\n",
				"bytecode": {
					"linkReferences": {},
					"object": "6080604052348015600e575f80fd5b506107e68061001c5f395ff3fe608060405234801561000f575f80fd5b506004361061003f575f3560e01c806373d4a13a146100435780637fdb2d6414610061578063b38ff7aa1461007d575b5f80fd5b61004b610099565b60405161005891906101bb565b60405180910390f35b61007b6004803603810190610076919061024d565b610124565b005b610097600480360381019061009291906103c0565b610139565b005b5f80546100a590610434565b80601f01602080910402602001604051908101604052809291908181526020018280546100d190610434565b801561011c5780601f106100f35761010080835404028352916020019161011c565b820191905f5260205f20905b8154815290600101906020018083116100ff57829003601f168201915b505050505081565b81815f9182610134929190610614565b505050565b805f908161014791906106e1565b5050565b5f81519050919050565b5f82825260208201905092915050565b8281835e5f83830152505050565b5f601f19601f8301169050919050565b5f61018d8261014b565b6101978185610155565b93506101a7818560208601610165565b6101b081610173565b840191505092915050565b5f6020820190508181035f8301526101d38184610183565b905092915050565b5f604051905090565b5f80fd5b5f80fd5b5f80fd5b5f80fd5b5f80fd5b5f8083601f84011261020d5761020c6101ec565b5b8235905067ffffffffffffffff81111561022a576102296101f0565b5b602083019150836001820283011115610246576102456101f4565b5b9250929050565b5f8060208385031215610263576102626101e4565b5b5f83013567ffffffffffffffff8111156102805761027f6101e8565b5b61028c858286016101f8565b92509250509250929050565b5f80fd5b7f4e487b71000000000000000000000000000000000000000000000000000000005f52604160045260245ffd5b6102d282610173565b810181811067ffffffffffffffff821117156102f1576102f061029c565b5b80604052505050565b5f6103036101db565b905061030f82826102c9565b919050565b5f67ffffffffffffffff82111561032e5761032d61029c565b5b61033782610173565b9050602081019050919050565b828183375f83830152505050565b5f61036461035f84610314565b6102fa565b9050828152602081018484840111156103805761037f610298565b5b61038b848285610344565b509392505050565b5f82601f8301126103a7576103a66101ec565b5b81356103b7848260208601610352565b91505092915050565b5f602082840312156103d5576103d46101e4565b5b5f82013567ffffffffffffffff8111156103f2576103f16101e8565b5b6103fe84828501610393565b91505092915050565b7f4e487b71000000000000000000000000000000000000000000000000000000005f52602260045260245ffd5b5f600282049050600182168061044b57607f821691505b60208210810361045e5761045d610407565b5b50919050565b5f82905092915050565b5f819050815f5260205f209050919050565b5f6020601f8301049050919050565b5f82821b905092915050565b5f600883026104ca7fffffffffffffffffffffffffffffffffffffffffffffffffffffffffffffffff8261048f565b6104d4868361048f565b95508019841693508086168417925050509392505050565b5f819050919050565b5f819050919050565b5f61051861051361050e846104ec565b6104f5565b6104ec565b9050919050565b5f819050919050565b610531836104fe565b61054561053d8261051f565b84845461049b565b825550505050565b5f90565b61055961054d565b610564818484610528565b505050565b5b818110156105875761057c5f82610551565b60018101905061056a565b5050565b601f8211156105cc5761059d8161046e565b6105a684610480565b810160208510156105b5578190505b6105c96105c185610480565b830182610569565b50505b505050565b5f82821c905092915050565b5f6105ec5f19846008026105d1565b1980831691505092915050565b5f61060483836105dd565b9150826002028217905092915050565b61061e8383610464565b67ffffffffffffffff8111156106375761063661029c565b5b6106418254610434565b61064c82828561058b565b5f601f831160018114610679575f8415610667578287013590505b61067185826105f9565b8655506106d8565b601f1984166106878661046e565b5f5b828110156106ae57848901358255600182019150602085019450602081019050610689565b868310156106cb57848901356106c7601f8916826105dd565b8355505b6001600288020188555050505b50505050505050565b6106ea8261014b565b67ffffffffffffffff8111156107035761070261029c565b5b61070d8254610434565b61071882828561058b565b5f60209050601f831160018114610749575f8415610737578287015190505b61074185826105f9565b8655506107a8565b601f1984166107578661046e565b5f5b8281101561077e57848901518255600182019150602085019450602081019050610759565b8683101561079b5784890151610797601f8916826105dd565b8355505b6001600288020188555050505b50505050505056fea26469706673582212200e497a826e6ad3ae96c71844502c557d8f29f5ab234e801477cae64ad5214e6064736f6c634300081a0033",
					"opcodes": "PUSH1 0x80 PUSH1 0x40 MSTORE CALLVALUE DUP1 ISZERO PUSH1 0xE JUMPI PUSH0 DUP1 REVERT JUMPDEST POP PUSH2 0x7E6 DUP1 PUSH2 0x1C PUSH0 CODECOPY PUSH0 RETURN INVALID PUSH1 0x80 PUSH1 0x40 MSTORE CALLVALUE DUP1 ISZERO PUSH2 0xF JUMPI PUSH0 DUP1 REVERT JUMPDEST POP PUSH1 0x4 CALLDATASIZE LT PUSH2 0x3F JUMPI PUSH0 CALLDATALOAD PUSH1 0xE0 SHR DUP1 PUSH4 0x73D4A13A EQ PUSH2 0x43 JUMPI DUP1 PUSH4 0x7FDB2D64 EQ PUSH2 0x61 JUMPI DUP1 PUSH4 0xB38FF7AA EQ PUSH2 0x7D JUMPI JUMPDEST PUSH0 DUP1 REVERT JUMPDEST PUSH2 0x4B PUSH2 0x99 JUMP JUMPDEST PUSH1 0x40 MLOAD PUSH2 0x58 SWAP2 SWAP1 PUSH2 0x1BB JUMP JUMPDEST PUSH1 0x40 MLOAD DUP1 SWAP2 SUB SWAP1 RETURN JUMPDEST PUSH2 0x7B PUSH1 0x4 DUP1 CALLDATASIZE SUB DUP2 ADD SWAP1 PUSH2 0x76 SWAP2 SWAP1 PUSH2 0x24D JUMP JUMPDEST PUSH2 0x124 JUMP JUMPDEST STOP JUMPDEST PUSH2 0x97 PUSH1 0x4 DUP1 CALLDATASIZE SUB DUP2 ADD SWAP1 PUSH2 0x92 SWAP2 SWAP1 PUSH2 0x3C0 JUMP JUMPDEST PUSH2 0x139 JUMP JUMPDEST STOP JUMPDEST PUSH0 DUP1 SLOAD PUSH2 0xA5 SWAP1 PUSH2 0x434 JUMP JUMPDEST DUP1 PUSH1 0x1F ADD PUSH1 0x20 DUP1 SWAP2 DIV MUL PUSH1 0x20 ADD PUSH1 0x40 MLOAD SWAP1 DUP2 ADD PUSH1 0x40 MSTORE DUP1 SWAP3 SWAP2 SWAP1 DUP2 DUP2 MSTORE PUSH1 0x20 ADD DUP3 DUP1 SLOAD PUSH2 0xD1 SWAP1 PUSH2 0x434 JUMP JUMPDEST DUP1 ISZERO PUSH2 0x11C JUMPI DUP1 PUSH1 0x1F LT PUSH2 0xF3 JUMPI PUSH2 0x100 DUP1 DUP4 SLOAD DIV MUL DUP4 MSTORE SWAP2 PUSH1 0x20 ADD SWAP2 PUSH2 0x11C JUMP JUMPDEST DUP3 ADD SWAP2 SWAP1 PUSH0 MSTORE PUSH1 0x20 PUSH0 KECCAK256 SWAP1 JUMPDEST DUP2 SLOAD DUP2 MSTORE SWAP1 PUSH1 0x1 ADD SWAP1 PUSH1 0x20 ADD DUP1 DUP4 GT PUSH2 0xFF JUMPI DUP3 SWAP1 SUB PUSH1 0x1F AND DUP3 ADD SWAP2 JUMPDEST POP POP POP POP POP DUP2 JUMP JUMPDEST DUP2 DUP2 PUSH0 SWAP2 DUP3 PUSH2 0x134 SWAP3 SWAP2 SWAP1 PUSH2 0x614 JUMP JUMPDEST POP POP POP JUMP JUMPDEST DUP1 PUSH0 SWAP1 DUP2 PUSH2 0x147 SWAP2 SWAP1 PUSH2 0x6E1 JUMP JUMPDEST POP POP JUMP JUMPDEST PUSH0 DUP2 MLOAD SWAP1 POP SWAP2 SWAP1 POP JUMP JUMPDEST PUSH0 DUP3 DUP3 MSTORE PUSH1 0x20 DUP3 ADD SWAP1 POP SWAP3 SWAP2 POP POP JUMP JUMPDEST DUP3 DUP2 DUP4 MCOPY PUSH0 DUP4 DUP4 ADD MSTORE POP POP POP JUMP JUMPDEST PUSH0 PUSH1 0x1F NOT PUSH1 0x1F DUP4 ADD AND SWAP1 POP SWAP2 SWAP1 POP JUMP JUMPDEST PUSH0 PUSH2 0x18D DUP3 PUSH2 0x14B JUMP JUMPDEST PUSH2 0x197 DUP2 DUP6 PUSH2 0x155 JUMP JUMPDEST SWAP4 POP PUSH2 0x1A7 DUP2 DUP6 PUSH1 0x20 DUP7 ADD PUSH2 0x165 JUMP JUMPDEST PUSH2 0x1B0 DUP2 PUSH2 0x173 JUMP JUMPDEST DUP5 ADD SWAP2 POP POP SWAP3 SWAP2 POP POP JUMP JUMPDEST PUSH0 PUSH1 0x20 DUP3 ADD SWAP1 POP DUP2 DUP2 SUB PUSH0 DUP4 ADD MSTORE PUSH2 0x1D3 DUP2 DUP5 PUSH2 0x183 JUMP JUMPDEST SWAP1 POP SWAP3 SWAP2 POP POP JUMP JUMPDEST PUSH0 PUSH1 0x40 MLOAD SWAP1 POP SWAP1 JUMP JUMPDEST PUSH0 DUP1 REVERT JUMPDEST PUSH0 DUP1 REVERT JUMPDEST PUSH0 DUP1 REVERT JUMPDEST PUSH0 DUP1 REVERT JUMPDEST PUSH0 DUP1 REVERT JUMPDEST PUSH0 DUP1 DUP4 PUSH1 0x1F DUP5 ADD SLT PUSH2 0x20D JUMPI PUSH2 0x20C PUSH2 0x1EC JUMP JUMPDEST JUMPDEST DUP3 CALLDATALOAD SWAP1 POP PUSH8 0xFFFFFFFFFFFFFFFF DUP2 GT ISZERO PUSH2 0x22A JUMPI PUSH2 0x229 PUSH2 0x1F0 JUMP JUMPDEST JUMPDEST PUSH1 0x20 DUP4 ADD SWAP2 POP DUP4 PUSH1 0x1 DUP3 MUL DUP4 ADD GT ISZERO PUSH2 0x246 JUMPI PUSH2 0x245 PUSH2 0x1F4 JUMP JUMPDEST JUMPDEST SWAP3 POP SWAP3 SWAP1 POP JUMP JUMPDEST PUSH0 DUP1 PUSH1 0x20 DUP4 DUP6 SUB SLT ISZERO PUSH2 0x263 JUMPI PUSH2 0x262 PUSH2 0x1E4 JUMP JUMPDEST JUMPDEST PUSH0 DUP4 ADD CALLDATALOAD PUSH8 0xFFFFFFFFFFFFFFFF DUP2 GT ISZERO PUSH2 0x280 JUMPI PUSH2 0x27F PUSH2 0x1E8 JUMP JUMPDEST JUMPDEST PUSH2 0x28C DUP6 DUP3 DUP7 ADD PUSH2 0x1F8 JUMP JUMPDEST SWAP3 POP SWAP3 POP POP SWAP3 POP SWAP3 SWAP1 POP JUMP JUMPDEST PUSH0 DUP1 REVERT JUMPDEST PUSH32 0x4E487B7100000000000000000000000000000000000000000000000000000000 PUSH0 MSTORE PUSH1 0x41 PUSH1 0x4 MSTORE PUSH1 0x24 PUSH0 REVERT JUMPDEST PUSH2 0x2D2 DUP3 PUSH2 0x173 JUMP JUMPDEST DUP2 ADD DUP2 DUP2 LT PUSH8 0xFFFFFFFFFFFFFFFF DUP3 GT OR ISZERO PUSH2 0x2F1 JUMPI PUSH2 0x2F0 PUSH2 0x29C JUMP JUMPDEST JUMPDEST DUP1 PUSH1 0x40 MSTORE POP POP POP JUMP JUMPDEST PUSH0 PUSH2 0x303 PUSH2 0x1DB JUMP JUMPDEST SWAP1 POP PUSH2 0x30F DUP3 DUP3 PUSH2 0x2C9 JUMP JUMPDEST SWAP2 SWAP1 POP JUMP JUMPDEST PUSH0 PUSH8 0xFFFFFFFFFFFFFFFF DUP3 GT ISZERO PUSH2 0x32E JUMPI PUSH2 0x32D PUSH2 0x29C JUMP JUMPDEST JUMPDEST PUSH2 0x337 DUP3 PUSH2 0x173 JUMP JUMPDEST SWAP1 POP PUSH1 0x20 DUP2 ADD SWAP1 POP SWAP2 SWAP1 POP JUMP JUMPDEST DUP3 DUP2 DUP4 CALLDATACOPY PUSH0 DUP4 DUP4 ADD MSTORE POP POP POP JUMP JUMPDEST PUSH0 PUSH2 0x364 PUSH2 0x35F DUP5 PUSH2 0x314 JUMP JUMPDEST PUSH2 0x2FA JUMP JUMPDEST SWAP1 POP DUP3 DUP2 MSTORE PUSH1 0x20 DUP2 ADD DUP5 DUP5 DUP5 ADD GT ISZERO PUSH2 0x380 JUMPI PUSH2 0x37F PUSH2 0x298 JUMP JUMPDEST JUMPDEST PUSH2 0x38B DUP5 DUP3 DUP6 PUSH2 0x344 JUMP JUMPDEST POP SWAP4 SWAP3 POP POP POP JUMP JUMPDEST PUSH0 DUP3 PUSH1 0x1F DUP4 ADD SLT PUSH2 0x3A7 JUMPI PUSH2 0x3A6 PUSH2 0x1EC JUMP JUMPDEST JUMPDEST DUP2 CALLDATALOAD PUSH2 0x3B7 DUP5 DUP3 PUSH1 0x20 DUP7 ADD PUSH2 0x352 JUMP JUMPDEST SWAP2 POP POP SWAP3 SWAP2 POP POP JUMP JUMPDEST PUSH0 PUSH1 0x20 DUP3 DUP5 SUB SLT ISZERO PUSH2 0x3D5 JUMPI PUSH2 0x3D4 PUSH2 0x1E4 JUMP JUMPDEST JUMPDEST PUSH0 DUP3 ADD CALLDATALOAD PUSH8 0xFFFFFFFFFFFFFFFF DUP2 GT ISZERO PUSH2 0x3F2 JUMPI PUSH2 0x3F1 PUSH2 0x1E8 JUMP JUMPDEST JUMPDEST PUSH2 0x3FE DUP5 DUP3 DUP6 ADD PUSH2 0x393 JUMP JUMPDEST SWAP2 POP POP SWAP3 SWAP2 POP POP JUMP JUMPDEST PUSH32 0x4E487B7100000000000000000000000000000000000000000000000000000000 PUSH0 MSTORE PUSH1 0x22 PUSH1 0x4 MSTORE PUSH1 0x24 PUSH0 REVERT JUMPDEST PUSH0 PUSH1 0x2 DUP3 DIV SWAP1 POP PUSH1 0x1 DUP3 AND DUP1 PUSH2 0x44B JUMPI PUSH1 0x7F DUP3 AND SWAP2 POP JUMPDEST PUSH1 0x20 DUP3 LT DUP2 SUB PUSH2 0x45E JUMPI PUSH2 0x45D PUSH2 0x407 JUMP JUMPDEST JUMPDEST POP SWAP2 SWAP1 POP JUMP JUMPDEST PUSH0 DUP3 SWAP1 POP SWAP3 SWAP2 POP POP JUMP JUMPDEST PUSH0 DUP2 SWAP1 POP DUP2 PUSH0 MSTORE PUSH1 0x20 PUSH0 KECCAK256 SWAP1 POP SWAP2 SWAP1 POP JUMP JUMPDEST PUSH0 PUSH1 0x20 PUSH1 0x1F DUP4 ADD DIV SWAP1 POP SWAP2 SWAP1 POP JUMP JUMPDEST PUSH0 DUP3 DUP3 SHL SWAP1 POP SWAP3 SWAP2 POP POP JUMP JUMPDEST PUSH0 PUSH1 0x8 DUP4 MUL PUSH2 0x4CA PUSH32 0xFFFFFFFFFFFFFFFFFFFFFFFFFFFFFFFFFFFFFFFFFFFFFFFFFFFFFFFFFFFFFFFF DUP3 PUSH2 0x48F JUMP JUMPDEST PUSH2 0x4D4 DUP7 DUP4 PUSH2 0x48F JUMP JUMPDEST SWAP6 POP DUP1 NOT DUP5 AND SWAP4 POP DUP1 DUP7 AND DUP5 OR SWAP3 POP POP POP SWAP4 SWAP3 POP POP POP JUMP JUMPDEST PUSH0 DUP2 SWAP1 POP SWAP2 SWAP1 POP JUMP JUMPDEST PUSH0 DUP2 SWAP1 POP SWAP2 SWAP1 POP JUMP JUMPDEST PUSH0 PUSH2 0x518 PUSH2 0x513 PUSH2 0x50E DUP5 PUSH2 0x4EC JUMP JUMPDEST PUSH2 0x4F5 JUMP JUMPDEST PUSH2 0x4EC JUMP JUMPDEST SWAP1 POP SWAP2 SWAP1 POP JUMP JUMPDEST PUSH0 DUP2 SWAP1 POP SWAP2 SWAP1 POP JUMP JUMPDEST PUSH2 0x531 DUP4 PUSH2 0x4FE JUMP JUMPDEST PUSH2 0x545 PUSH2 0x53D DUP3 PUSH2 0x51F JUMP JUMPDEST DUP5 DUP5 SLOAD PUSH2 0x49B JUMP JUMPDEST DUP3 SSTORE POP POP POP POP JUMP JUMPDEST PUSH0 SWAP1 JUMP JUMPDEST PUSH2 0x559 PUSH2 0x54D JUMP JUMPDEST PUSH2 0x564 DUP2 DUP5 DUP5 PUSH2 0x528 JUMP JUMPDEST POP POP POP JUMP JUMPDEST JUMPDEST DUP2 DUP2 LT ISZERO PUSH2 0x587 JUMPI PUSH2 0x57C PUSH0 DUP3 PUSH2 0x551 JUMP JUMPDEST PUSH1 0x1 DUP2 ADD SWAP1 POP PUSH2 0x56A JUMP JUMPDEST POP POP JUMP JUMPDEST PUSH1 0x1F DUP3 GT ISZERO PUSH2 0x5CC JUMPI PUSH2 0x59D DUP2 PUSH2 0x46E JUMP JUMPDEST PUSH2 0x5A6 DUP5 PUSH2 0x480 JUMP JUMPDEST DUP2 ADD PUSH1 0x20 DUP6 LT ISZERO PUSH2 0x5B5 JUMPI DUP2 SWAP1 POP JUMPDEST PUSH2 0x5C9 PUSH2 0x5C1 DUP6 PUSH2 0x480 JUMP JUMPDEST DUP4 ADD DUP3 PUSH2 0x569 JUMP JUMPDEST POP POP JUMPDEST POP POP POP JUMP JUMPDEST PUSH0 DUP3 DUP3 SHR SWAP1 POP SWAP3 SWAP2 POP POP JUMP JUMPDEST PUSH0 PUSH2 0x5EC PUSH0 NOT DUP5 PUSH1 0x8 MUL PUSH2 0x5D1 JUMP JUMPDEST NOT DUP1 DUP4 AND SWAP2 POP POP SWAP3 SWAP2 POP POP JUMP JUMPDEST PUSH0 PUSH2 0x604 DUP4 DUP4 PUSH2 0x5DD JUMP JUMPDEST SWAP2 POP DUP3 PUSH1 0x2 MUL DUP3 OR SWAP1 POP SWAP3 SWAP2 POP POP JUMP JUMPDEST PUSH2 0x61E DUP4 DUP4 PUSH2 0x464 JUMP JUMPDEST PUSH8 0xFFFFFFFFFFFFFFFF DUP2 GT ISZERO PUSH2 0x637 JUMPI PUSH2 0x636 PUSH2 0x29C JUMP JUMPDEST JUMPDEST PUSH2 0x641 DUP3 SLOAD PUSH2 0x434 JUMP JUMPDEST PUSH2 0x64C DUP3 DUP3 DUP6 PUSH2 0x58B JUMP JUMPDEST PUSH0 PUSH1 0x1F DUP4 GT PUSH1 0x1 DUP2 EQ PUSH2 0x679 JUMPI PUSH0 DUP5 ISZERO PUSH2 0x667 JUMPI DUP3 DUP8 ADD CALLDATALOAD SWAP1 POP JUMPDEST PUSH2 0x671 DUP6 DUP3 PUSH2 0x5F9 JUMP JUMPDEST DUP7 SSTORE POP PUSH2 0x6D8 JUMP JUMPDEST PUSH1 0x1F NOT DUP5 AND PUSH2 0x687 DUP7 PUSH2 0x46E JUMP JUMPDEST PUSH0 JUMPDEST DUP3 DUP2 LT ISZERO PUSH2 0x6AE JUMPI DUP5 DUP10 ADD CALLDATALOAD DUP3 SSTORE PUSH1 0x1 DUP3 ADD SWAP2 POP PUSH1 0x20 DUP6 ADD SWAP5 POP PUSH1 0x20 DUP2 ADD SWAP1 POP PUSH2 0x689 JUMP JUMPDEST DUP7 DUP4 LT ISZERO PUSH2 0x6CB JUMPI DUP5 DUP10 ADD CALLDATALOAD PUSH2 0x6C7 PUSH1 0x1F DUP10 AND DUP3 PUSH2 0x5DD JUMP JUMPDEST DUP4 SSTORE POP JUMPDEST PUSH1 0x1 PUSH1 0x2 DUP9 MUL ADD DUP9 SSTORE POP POP POP JUMPDEST POP POP POP POP POP POP POP JUMP JUMPDEST PUSH2 0x6EA DUP3 PUSH2 0x14B JUMP JUMPDEST PUSH8 0xFFFFFFFFFFFFFFFF DUP2 GT ISZERO PUSH2 0x703 JUMPI PUSH2 0x702 PUSH2 0x29C JUMP JUMPDEST JUMPDEST PUSH2 0x70D DUP3 SLOAD PUSH2 0x434 JUMP JUMPDEST PUSH2 0x718 DUP3 DUP3 DUP6 PUSH2 0x58B JUMP JUMPDEST PUSH0 PUSH1 0x20 SWAP1 POP PUSH1 0x1F DUP4 GT PUSH1 0x1 DUP2 EQ PUSH2 0x749 JUMPI PUSH0 DUP5 ISZERO PUSH2 0x737 JUMPI DUP3 DUP8 ADD MLOAD SWAP1 POP JUMPDEST PUSH2 0x741 DUP6 DUP3 PUSH2 0x5F9 JUMP JUMPDEST DUP7 SSTORE POP PUSH2 0x7A8 JUMP JUMPDEST PUSH1 0x1F NOT DUP5 AND PUSH2 0x757 DUP7 PUSH2 0x46E JUMP JUMPDEST PUSH0 JUMPDEST DUP3 DUP2 LT ISZERO PUSH2 0x77E JUMPI DUP5 DUP10 ADD MLOAD DUP3 SSTORE PUSH1 0x1 DUP3 ADD SWAP2 POP PUSH1 0x20 DUP6 ADD SWAP5 POP PUSH1 0x20 DUP2 ADD SWAP1 POP PUSH2 0x759 JUMP JUMPDEST DUP7 DUP4 LT ISZERO PUSH2 0x79B JUMPI DUP5 DUP10 ADD MLOAD PUSH2 0x797 PUSH1 0x1F DUP10 AND DUP3 PUSH2 0x5DD JUMP JUMPDEST DUP4 SSTORE POP JUMPDEST PUSH1 0x1 PUSH1 0x2 DUP9 MUL ADD DUP9 SSTORE POP POP POP JUMPDEST POP POP POP POP POP POP JUMP INVALID LOG2 PUSH5 0x6970667358 0x22 SLT KECCAK256 0xE BLOBHASH PUSH27 0x826E6AD3AE96C71844502C557D8F29F5AB234E801477CAE64AD521 0x4E PUSH1 0x64 PUSH20 0x6F6C634300081A00330000000000000000000000 "
				},
				"gasEstimates": {
					"creation": {
						"codeDepositCost": "404400",
						"executionCost": "441",
						"totalCost": "404841"
					},
					"external": {
						"data()": "infinite",
						"updateBoros(string)": "infinite",
						"updateHemat(string)": "infinite"
					}
				},
				"methodIdentifiers": {
					"data()": "73d4a13a",
					"updateBoros(string)": "b38ff7aa",
					"updateHemat(string)": "7fdb2d64"
				}
			},
			"storageLayout": {
				"storage": [
					{
						"astId": 3,
						"contract": "GasOptimization.sol:GasOptimized",
						"label": "data",
						"offset": 0,
						"slot": "0",
						"type": "t_string_storage"
					}
				],
				"types": {
					"t_string_storage": {
						"encoding": "bytes",
						"label": "string",
						"numberOfBytes": "32"
					}
				}
			},
			"userdoc": {
				"kind": "user",
				"methods": {},
				"version": 1
			}
		}
	}
}